{
  "_format": "hh-sol-artifact-1",
  "contractName": "Treasury",
  "sourceName": "contracts/Treasury.sol",
  "abi": [
    {
      "inputs": [
        {
          "internalType": "address",
          "name": "_cash",
          "type": "address"
        },
        {
          "internalType": "address",
          "name": "_bond",
          "type": "address"
        },
        {
          "internalType": "address",
          "name": "_share",
          "type": "address"
        },
        {
          "internalType": "address",
          "name": "_bondOracle",
          "type": "address"
        },
        {
          "internalType": "address",
          "name": "_seigniorageOracle",
          "type": "address"
        },
        {
          "internalType": "address",
          "name": "_boardroom",
          "type": "address"
        },
        {
          "internalType": "address",
          "name": "_fund",
          "type": "address"
        },
        {
          "internalType": "address",
          "name": "_devFund",
          "type": "address"
        },
        {
          "internalType": "uint256",
          "name": "_startTime",
          "type": "uint256"
        }
      ],
      "stateMutability": "nonpayable",
      "type": "constructor"
    },
    {
      "anonymous": false,
      "inputs": [
        {
          "indexed": false,
          "internalType": "uint256",
          "name": "timestamp",
          "type": "uint256"
        },
        {
          "indexed": false,
          "internalType": "uint256",
          "name": "seigniorage",
          "type": "uint256"
        }
      ],
      "name": "BoardroomFunded",
      "type": "event"
    },
    {
      "anonymous": false,
      "inputs": [
        {
          "indexed": true,
          "internalType": "address",
          "name": "from",
          "type": "address"
        },
        {
          "indexed": false,
          "internalType": "uint256",
          "name": "amount",
          "type": "uint256"
        }
      ],
      "name": "BoughtBonds",
      "type": "event"
    },
    {
      "anonymous": false,
      "inputs": [
        {
          "indexed": true,
          "internalType": "address",
          "name": "operator",
          "type": "address"
        },
        {
          "indexed": false,
          "internalType": "address",
          "name": "newFund",
          "type": "address"
        }
      ],
      "name": "ContributionPoolChanged",
      "type": "event"
    },
    {
      "anonymous": false,
      "inputs": [
        {
          "indexed": false,
          "internalType": "uint256",
          "name": "timestamp",
          "type": "uint256"
        },
        {
          "indexed": false,
          "internalType": "uint256",
          "name": "seigniorage",
          "type": "uint256"
        }
      ],
      "name": "ContributionPoolFunded",
      "type": "event"
    },
    {
      "anonymous": false,
      "inputs": [
        {
          "indexed": true,
          "internalType": "address",
          "name": "operator",
          "type": "address"
        },
        {
          "indexed": false,
          "internalType": "uint256",
          "name": "newRate",
          "type": "uint256"
        }
      ],
      "name": "ContributionPoolRateChanged",
      "type": "event"
    },
    {
      "anonymous": false,
      "inputs": [
        {
          "indexed": true,
          "internalType": "address",
          "name": "operator",
          "type": "address"
        },
        {
          "indexed": false,
          "internalType": "address",
          "name": "newDevFund",
          "type": "address"
        }
      ],
      "name": "DevFundChanged",
      "type": "event"
    },
    {
      "anonymous": false,
      "inputs": [
        {
          "indexed": true,
          "internalType": "address",
          "name": "operator",
          "type": "address"
        },
        {
          "indexed": false,
          "internalType": "uint256",
          "name": "newRate",
          "type": "uint256"
        }
      ],
      "name": "DevFundRateChanged",
      "type": "event"
    },
    {
      "anonymous": false,
      "inputs": [
        {
          "indexed": false,
          "internalType": "uint256",
          "name": "timestamp",
          "type": "uint256"
        },
        {
          "indexed": false,
          "internalType": "uint256",
          "name": "seigniorage",
          "type": "uint256"
        }
      ],
      "name": "DevPoolFunded",
      "type": "event"
    },
    {
      "anonymous": false,
      "inputs": [
        {
          "indexed": true,
          "internalType": "address",
          "name": "executor",
          "type": "address"
        },
        {
          "indexed": false,
          "internalType": "uint256",
          "name": "at",
          "type": "uint256"
        }
      ],
      "name": "Initialized",
      "type": "event"
    },
    {
      "anonymous": false,
      "inputs": [
        {
          "indexed": true,
          "internalType": "address",
          "name": "target",
          "type": "address"
        }
      ],
      "name": "Migration",
      "type": "event"
    },
    {
      "anonymous": false,
      "inputs": [
        {
          "indexed": true,
          "internalType": "address",
          "name": "previousOperator",
          "type": "address"
        },
        {
          "indexed": true,
          "internalType": "address",
          "name": "newOperator",
          "type": "address"
        }
      ],
      "name": "OperatorTransferred",
      "type": "event"
    },
    {
      "anonymous": false,
      "inputs": [
        {
          "indexed": true,
          "internalType": "address",
          "name": "previousOwner",
          "type": "address"
        },
        {
          "indexed": true,
          "internalType": "address",
          "name": "newOwner",
          "type": "address"
        }
      ],
      "name": "OwnershipTransferred",
      "type": "event"
    },
    {
      "anonymous": false,
      "inputs": [
        {
          "indexed": true,
          "internalType": "address",
          "name": "from",
          "type": "address"
        },
        {
          "indexed": false,
          "internalType": "uint256",
          "name": "amount",
          "type": "uint256"
        }
      ],
      "name": "RedeemedBonds",
      "type": "event"
    },
    {
      "anonymous": false,
      "inputs": [
        {
          "indexed": false,
          "internalType": "uint256",
          "name": "timestamp",
          "type": "uint256"
        },
        {
          "indexed": false,
          "internalType": "uint256",
          "name": "seigniorage",
          "type": "uint256"
        }
      ],
      "name": "TreasuryFunded",
      "type": "event"
    },
    {
      "inputs": [],
      "name": "FUND_RATE_DENOMINATOR",
      "outputs": [
        {
          "internalType": "uint256",
          "name": "",
          "type": "uint256"
        }
      ],
      "stateMutability": "view",
      "type": "function"
    },
    {
      "inputs": [],
      "name": "WBTC_PRICE_PRECISION",
      "outputs": [
        {
          "internalType": "uint256",
          "name": "",
          "type": "uint256"
        }
      ],
      "stateMutability": "view",
      "type": "function"
    },
    {
      "inputs": [],
      "name": "allocateSeigniorage",
      "outputs": [],
      "stateMutability": "nonpayable",
      "type": "function"
    },
    {
      "inputs": [],
      "name": "boardroom",
      "outputs": [
        {
          "internalType": "address",
          "name": "",
          "type": "address"
        }
      ],
      "stateMutability": "view",
      "type": "function"
    },
    {
      "inputs": [],
      "name": "bond",
      "outputs": [
        {
          "internalType": "address",
          "name": "",
          "type": "address"
        }
      ],
      "stateMutability": "view",
      "type": "function"
    },
    {
      "inputs": [],
      "name": "bondDepletionFloor",
      "outputs": [
        {
          "internalType": "uint256",
          "name": "",
          "type": "uint256"
        }
      ],
      "stateMutability": "view",
      "type": "function"
    },
    {
      "inputs": [],
      "name": "bondOracle",
      "outputs": [
        {
          "internalType": "address",
          "name": "",
          "type": "address"
        }
      ],
      "stateMutability": "view",
      "type": "function"
    },
    {
      "inputs": [
        {
          "internalType": "uint256",
          "name": "amount",
          "type": "uint256"
        },
        {
          "internalType": "uint256",
          "name": "targetPrice",
          "type": "uint256"
        }
      ],
      "name": "buyBonds",
      "outputs": [],
      "stateMutability": "nonpayable",
      "type": "function"
    },
    {
      "inputs": [],
      "name": "cash",
      "outputs": [
        {
          "internalType": "address",
          "name": "",
          "type": "address"
        }
      ],
      "stateMutability": "view",
      "type": "function"
    },
    {
      "inputs": [],
      "name": "cashPriceCeiling",
      "outputs": [
        {
          "internalType": "uint256",
          "name": "",
          "type": "uint256"
        }
      ],
      "stateMutability": "view",
      "type": "function"
    },
    {
      "inputs": [],
      "name": "cashPriceOne",
      "outputs": [
        {
          "internalType": "uint256",
          "name": "",
          "type": "uint256"
        }
      ],
      "stateMutability": "view",
      "type": "function"
    },
    {
      "inputs": [],
      "name": "devFund",
      "outputs": [
        {
          "internalType": "address",
          "name": "",
          "type": "address"
        }
      ],
      "stateMutability": "view",
      "type": "function"
    },
    {
      "inputs": [],
      "name": "devFundAllocationRate",
      "outputs": [
        {
          "internalType": "uint256",
          "name": "",
          "type": "uint256"
        }
      ],
      "stateMutability": "view",
      "type": "function"
    },
    {
      "inputs": [],
      "name": "fund",
      "outputs": [
        {
          "internalType": "address",
          "name": "",
          "type": "address"
        }
      ],
      "stateMutability": "view",
      "type": "function"
    },
    {
      "inputs": [],
      "name": "fundAllocationRate",
      "outputs": [
        {
          "internalType": "uint256",
          "name": "",
          "type": "uint256"
        }
      ],
      "stateMutability": "view",
      "type": "function"
    },
    {
      "inputs": [],
      "name": "getBondOraclePrice",
      "outputs": [
        {
          "internalType": "uint256",
          "name": "",
          "type": "uint256"
        }
      ],
      "stateMutability": "view",
      "type": "function"
    },
    {
      "inputs": [],
      "name": "getCurrentEpoch",
      "outputs": [
        {
          "internalType": "uint256",
          "name": "",
          "type": "uint256"
        }
      ],
      "stateMutability": "view",
      "type": "function"
    },
    {
      "inputs": [],
      "name": "getLastEpoch",
      "outputs": [
        {
          "internalType": "uint256",
          "name": "",
          "type": "uint256"
        }
      ],
      "stateMutability": "view",
      "type": "function"
    },
    {
      "inputs": [],
      "name": "getNextEpoch",
      "outputs": [
        {
          "internalType": "uint256",
          "name": "",
          "type": "uint256"
        }
      ],
      "stateMutability": "view",
      "type": "function"
    },
    {
      "inputs": [],
      "name": "getPeriod",
      "outputs": [
        {
          "internalType": "uint256",
          "name": "",
          "type": "uint256"
        }
      ],
      "stateMutability": "view",
      "type": "function"
    },
    {
      "inputs": [],
      "name": "getReserve",
      "outputs": [
        {
          "internalType": "uint256",
          "name": "",
          "type": "uint256"
        }
      ],
      "stateMutability": "view",
      "type": "function"
    },
    {
      "inputs": [],
      "name": "getSeigniorageOraclePrice",
      "outputs": [
        {
          "internalType": "uint256",
          "name": "",
          "type": "uint256"
        }
      ],
      "stateMutability": "view",
      "type": "function"
    },
    {
      "inputs": [],
      "name": "getStartTime",
      "outputs": [
        {
          "internalType": "uint256",
          "name": "",
          "type": "uint256"
        }
      ],
      "stateMutability": "view",
      "type": "function"
    },
    {
      "inputs": [],
      "name": "initialize",
      "outputs": [],
      "stateMutability": "nonpayable",
      "type": "function"
    },
    {
      "inputs": [],
      "name": "initialized",
      "outputs": [
        {
          "internalType": "bool",
          "name": "",
          "type": "bool"
        }
      ],
      "stateMutability": "view",
      "type": "function"
    },
    {
      "inputs": [],
      "name": "isOperator",
      "outputs": [
        {
          "internalType": "bool",
          "name": "",
          "type": "bool"
        }
      ],
      "stateMutability": "view",
      "type": "function"
    },
    {
      "inputs": [
        {
          "internalType": "address",
          "name": "target",
          "type": "address"
        }
      ],
      "name": "migrate",
      "outputs": [],
      "stateMutability": "nonpayable",
      "type": "function"
    },
    {
      "inputs": [],
      "name": "migrated",
      "outputs": [
        {
          "internalType": "bool",
          "name": "",
          "type": "bool"
        }
      ],
      "stateMutability": "view",
      "type": "function"
    },
    {
      "inputs": [],
      "name": "nextEpochPoint",
      "outputs": [
        {
          "internalType": "uint256",
          "name": "",
          "type": "uint256"
        }
      ],
      "stateMutability": "view",
      "type": "function"
    },
    {
      "inputs": [],
      "name": "operator",
      "outputs": [
        {
          "internalType": "address",
          "name": "",
          "type": "address"
        }
      ],
      "stateMutability": "view",
      "type": "function"
    },
    {
      "inputs": [],
      "name": "owner",
      "outputs": [
        {
          "internalType": "address",
          "name": "",
          "type": "address"
        }
      ],
      "stateMutability": "view",
      "type": "function"
    },
    {
      "inputs": [
        {
          "internalType": "uint256",
          "name": "amount",
          "type": "uint256"
        },
        {
          "internalType": "uint256",
          "name": "targetPrice",
          "type": "uint256"
        }
      ],
      "name": "redeemBonds",
      "outputs": [],
      "stateMutability": "nonpayable",
      "type": "function"
    },
    {
      "inputs": [],
      "name": "renounceOwnership",
      "outputs": [],
      "stateMutability": "nonpayable",
      "type": "function"
    },
    {
      "inputs": [],
      "name": "seigniorageOracle",
      "outputs": [
        {
          "internalType": "address",
          "name": "",
          "type": "address"
        }
      ],
      "stateMutability": "view",
      "type": "function"
    },
    {
      "inputs": [
        {
          "internalType": "uint256",
          "name": "rate",
          "type": "uint256"
        }
      ],
      "name": "setDevAllocationRate",
      "outputs": [],
      "stateMutability": "nonpayable",
      "type": "function"
    },
    {
      "inputs": [
        {
          "internalType": "address",
          "name": "newDevFund",
          "type": "address"
        }
      ],
      "name": "setDevFund",
      "outputs": [],
      "stateMutability": "nonpayable",
      "type": "function"
    },
    {
      "inputs": [
        {
          "internalType": "address",
          "name": "newFund",
          "type": "address"
        }
      ],
      "name": "setFund",
      "outputs": [],
      "stateMutability": "nonpayable",
      "type": "function"
    },
    {
      "inputs": [
        {
          "internalType": "uint256",
          "name": "rate",
          "type": "uint256"
        }
      ],
      "name": "setFundAllocationRate",
      "outputs": [],
      "stateMutability": "nonpayable",
      "type": "function"
    },
    {
      "inputs": [
        {
          "internalType": "uint256",
          "name": "_period",
          "type": "uint256"
        }
      ],
      "name": "setPeriod",
      "outputs": [],
      "stateMutability": "nonpayable",
      "type": "function"
    },
    {
      "inputs": [],
      "name": "share",
      "outputs": [
        {
          "internalType": "address",
          "name": "",
          "type": "address"
        }
      ],
      "stateMutability": "view",
      "type": "function"
    },
    {
      "inputs": [
        {
          "internalType": "address",
          "name": "newOperator_",
          "type": "address"
        }
      ],
      "name": "transferOperator",
      "outputs": [],
      "stateMutability": "nonpayable",
      "type": "function"
    },
    {
      "inputs": [
        {
          "internalType": "address",
          "name": "newOwner",
          "type": "address"
        }
      ],
      "name": "transferOwnership",
      "outputs": [],
      "stateMutability": "nonpayable",
      "type": "function"
    }
  ],
  "bytecode": "0x60806040526006805461ffff191690556000601155600a60128190556013553480156200002b57600080fd5b5060405162003d3f38038062003d3f83398181016040526101208110156200005257600080fd5b508051602082015160408301516060840151608085015160a086015160c087015160e0880151610100909801519697959694959394929391929091906201518081600080620000a0620002dc565b600180546001600160a01b0319166001600160a01b038316908117909155604051919250906000907f8be0079c531659141344cd1fd0a4f28419497f9722a3daafe3b4186f6b6457e0908290a350620000f8620002dc565b600280546001600160a01b0319166001600160a01b0392831617908190556040519116906000907f74da04524d50c64947f5dd5381ef1a4dca5cba8ed1d816243f9e48aa0b5617ed908290a342821162000199576040805162461bcd60e51b815260206004820152601960248201527f45706f63683a20696e76616c69642073746172742074696d6500000000000000604482015290519081900360640190fd5b60038390556004829055620001d6620001bf8285620002e0602090811b62002db817901c565b6004546200034760201b62002e1a1790919060201c565b6005555050600880546001600160a01b03199081166001600160a01b038d8116919091179092556009805482168c8416179055600a805482168b8416179055600c805482168a8416179055600d80548216898416179055600b805482168884161790556006805462010000600160b01b031916620100008885160217905560078054909116918516919091179055506305f5e100600e819055620002a5906064906200029190606990620002e0602090811b62002db817901c565b620003a260201b62002e741790919060201c565b600f81905550620002c9600e546103e8620002e060201b62002db81790919060201c565b6010555062000493975050505050505050565b3390565b600082620002f15750600062000341565b82820282848281620002ff57fe5b04146200033e5760405162461bcd60e51b815260040180806020018281038252602181526020018062003d1e6021913960400191505060405180910390fd5b90505b92915050565b6000828201838110156200033e576040805162461bcd60e51b815260206004820152601b60248201527f536166654d6174683a206164646974696f6e206f766572666c6f770000000000604482015290519081900360640190fd5b60006200033e83836040518060400160405280601a81526020017f536166654d6174683a206469766973696f6e206279207a65726f000000000000815250620003ec60201b60201c565b600081836200047c5760405162461bcd60e51b81526004018080602001828103825283818151815260200191508051906020019080838360005b838110156200044057818101518382015260200162000426565b50505050905090810190601f1680156200046e5780820380516001836020036101000a031916815260200191505b509250505060405180910390fd5b5060008385816200048957fe5b0495945050505050565b61387b80620004a36000396000f3fe608060405234801561001057600080fd5b506004361061025e5760003560e01c80638129fc1c11610146578063b8e2cf8e116100c3578063c828371e11610087578063c828371e14610481578063ce5494bb14610489578063e03047b7146104af578063ee4b1b08146104b7578063efe97d05146104d4578063f2fde38b146104dc5761025e565b8063b8e2cf8e14610459578063b97dd9e214610461578063c1a2977214610469578063c1aa390014610471578063c5967c26146104795761025e565b8063a8d5fd651161010a578063a8d5fd6514610413578063a9cfc46e1461041b578063ae4db91914610423578063b51ef05114610449578063b60d4288146104515761025e565b80638129fc1c146103d657806384d2976d146103de5780638da5cb5b146103e657806395b1828a146103ee578063961be3911461040b5761025e565b80633a59c9a8116101df57806359bf5d39116101a357806359bf5d39146103a65780635b756179146103ae5780635e02c51e146103b657806364c9ec6f146103be5780636d19921d146103c6578063715018a6146103ce5761025e565b80633a59c9a8146103635780634390d2a81461036b5780634456eda21461037357806354f04a111461037b578063570ca7351461039e5761025e565b80631ed24195116102265780631ed241951461030b57806323ced1351461032557806329605e771461032d5780632c678c6414610353578063398bac631461035b5761025e565b80630e21750f146102635780630f3a9f651461028b578063118ebbf9146102a8578063132eeaa7146102cb578063158ef93e146102ef575b600080fd5b6102896004803603602081101561027957600080fd5b50356001600160a01b0316610502565b005b610289600480360360208110156102a157600080fd5b50356105ac565b610289600480360360408110156102be57600080fd5b50803590602001356105fa565b6102d3610c18565b604080516001600160a01b039092168252519081900360200190f35b6102f7610c27565b604080519115158252519081900360200190f35b610313610c35565b60408051918252519081900360200190f35b610313610c3c565b6102896004803603602081101561034357600080fd5b50356001600160a01b0316610c42565b6102f7610cb8565b610313610cc1565b610313610ceb565b6102d3610cf1565b6102f7610d00565b6102896004803603604081101561039157600080fd5b5080359060200135610d26565b6102d36112f7565b610313611306565b61028961130c565b6102d3611c7c565b6102d3611c8b565b6102d3611c9a565b610289611ca9565b610289611d5d565b610313612187565b6102d361218d565b6102896004803603602081101561040457600080fd5b503561219c565b6102d3612223565b6102d3612232565b610313612241565b6102896004803603602081101561043957600080fd5b50356001600160a01b0316612247565b6103136122e7565b6102d36122ef565b610313612304565b61031361231c565b61031361233c565b610313612354565b61031361235a565b61031361237c565b6102896004803603602081101561049f57600080fd5b50356001600160a01b0316612382565b610313612bf0565b610289600480360360208110156104cd57600080fd5b5035612bf6565b610313612c7d565b610289600480360360208110156104f257600080fd5b50356001600160a01b0316612cad565b6002546001600160a01b0316331461054b5760405162461bcd60e51b815260040180806020018281038252602481526020018061379c6024913960400191505060405180910390fd5b600680546001600160a01b03831662010000810262010000600160b01b031990921691909117909155604080519182525133917f970b0c70d6e9879d19345f9dbfd8bacae71546478b8bb2d8a56ad8927d3d436e919081900360200190a250565b6002546001600160a01b031633146105f55760405162461bcd60e51b815260040180806020018281038252602481526020018061379c6024913960400191505060405180910390fd5b600355565b610602612eb6565b1561063e5760405162461bcd60e51b81526004018080602001828103825260268152602001806137ea6026913960400191505060405180910390fd5b610646612ed5565b156106825760405162461bcd60e51b81526004018080602001828103825260268152602001806137ea6026913960400191505060405180910390fd5b60065460ff16156106cf576040805162461bcd60e51b8152602060048201526012602482015271151c99585cdd5c9e4e881b5a59dc985d195960721b604482015290519081900360640190fd5b60045442101561071f576040805162461bcd60e51b8152602060048201526016602482015275115c1bd8da0e881b9bdd081cdd185c9d1959081e595d60521b604482015290519081900360640190fd5b6008546040805163570ca73560e01b8152905130926001600160a01b03169163570ca735916004808301926020929190829003018186803b15801561076357600080fd5b505afa158015610777573d6000803e3d6000fd5b505050506040513d602081101561078d57600080fd5b50516001600160a01b031614801561081b57506009546040805163570ca73560e01b8152905130926001600160a01b03169163570ca735916004808301926020929190829003018186803b1580156107e457600080fd5b505afa1580156107f8573d6000803e3d6000fd5b505050506040513d602081101561080e57600080fd5b50516001600160a01b0316145b801561089d5750600a546040805163570ca73560e01b8152905130926001600160a01b03169163570ca735916004808301926020929190829003018186803b15801561086657600080fd5b505afa15801561087a573d6000803e3d6000fd5b505050506040513d602081101561089057600080fd5b50516001600160a01b0316145b801561091f5750600b546040805163570ca73560e01b8152905130926001600160a01b03169163570ca735916004808301926020929190829003018186803b1580156108e857600080fd5b505afa1580156108fc573d6000803e3d6000fd5b505050506040513d602081101561091257600080fd5b50516001600160a01b0316145b61095e576040805162461bcd60e51b815260206004820152601e602482015260008051602061374c833981519152604482015290519081900360640190fd5b6000821161099d5760405162461bcd60e51b815260040180806020018281038252602e815260200180613643602e913960400191505060405180910390fd5b600c546000906109b5906001600160a01b0316612ef4565b9050818114610a0b576040805162461bcd60e51b815260206004820152601a60248201527f54726561737572793a2063617368207072696365206d6f766564000000000000604482015290519081900360640190fd5b600f548111610a4b5760405162461bcd60e51b81526004018080602001828103825260328152602001806136716032913960400191505060405180910390fd5b600854604080516370a0823160e01b8152306004820152905185926001600160a01b0316916370a08231916024808301926020929190829003018186803b158015610a9557600080fd5b505afa158015610aa9573d6000803e3d6000fd5b505050506040513d6020811015610abf57600080fd5b50511015610afe5760405162461bcd60e51b81526004018080602001828103825260258152602001806136d06025913960400191505060405180910390fd5b610b16610b0d60115485612fb0565b60115490612fc6565b6011556009546040805163079cc67960e41b81523360048201526024810186905290516001600160a01b03909216916379cc67909160448082019260009290919082900301818387803b158015610b6c57600080fd5b505af1158015610b80573d6000803e3d6000fd5b5050600854610b9c92506001600160a01b031690503385613008565b610ba461305f565b60408051848152905133917f9c3478f12dce08d85673d802af16ed5b9ebab8420ffd7b145d65d3157084b2ce919081900360200190a25050436000908152602081815260408083203284529091528082208054600160ff199182168117909255338452919092208054909116909117905550565b600d546001600160a01b031681565b600654610100900460ff1681565b6003545b90565b600f5481565b610c4a613121565b6001546001600160a01b03908116911614610cac576040805162461bcd60e51b815260206004820181905260248201527f4f776e61626c653a2063616c6c6572206973206e6f7420746865206f776e6572604482015290519081900360640190fd5b610cb581613125565b50565b60065460ff1681565b6000610ce6600354610ce0600454600554612fc690919063ffffffff16565b90612e74565b905090565b60135481565b6007546001600160a01b031681565b6002546000906001600160a01b0316610d17613121565b6001600160a01b031614905090565b610d2e612eb6565b15610d6a5760405162461bcd60e51b81526004018080602001828103825260268152602001806137ea6026913960400191505060405180910390fd5b610d72612ed5565b15610dae5760405162461bcd60e51b81526004018080602001828103825260268152602001806137ea6026913960400191505060405180910390fd5b60065460ff1615610dfb576040805162461bcd60e51b8152602060048201526012602482015271151c99585cdd5c9e4e881b5a59dc985d195960721b604482015290519081900360640190fd5b600454421015610e4b576040805162461bcd60e51b8152602060048201526016602482015275115c1bd8da0e881b9bdd081cdd185c9d1959081e595d60521b604482015290519081900360640190fd5b6008546040805163570ca73560e01b8152905130926001600160a01b03169163570ca735916004808301926020929190829003018186803b158015610e8f57600080fd5b505afa158015610ea3573d6000803e3d6000fd5b505050506040513d6020811015610eb957600080fd5b50516001600160a01b0316148015610f4757506009546040805163570ca73560e01b8152905130926001600160a01b03169163570ca735916004808301926020929190829003018186803b158015610f1057600080fd5b505afa158015610f24573d6000803e3d6000fd5b505050506040513d6020811015610f3a57600080fd5b50516001600160a01b0316145b8015610fc95750600a546040805163570ca73560e01b8152905130926001600160a01b03169163570ca735916004808301926020929190829003018186803b158015610f9257600080fd5b505afa158015610fa6573d6000803e3d6000fd5b505050506040513d6020811015610fbc57600080fd5b50516001600160a01b0316145b801561104b5750600b546040805163570ca73560e01b8152905130926001600160a01b03169163570ca735916004808301926020929190829003018186803b15801561101457600080fd5b505afa158015611028573d6000803e3d6000fd5b505050506040513d602081101561103e57600080fd5b50516001600160a01b0316145b61108a576040805162461bcd60e51b815260206004820152601e602482015260008051602061374c833981519152604482015290519081900360640190fd5b600082116110c95760405162461bcd60e51b815260040180806020018281038252603081526020018061376c6030913960400191505060405180910390fd5b600c546000906110e1906001600160a01b0316612ef4565b9050818114611137576040805162461bcd60e51b815260206004820152601a60248201527f54726561737572793a2063617368207072696365206d6f766564000000000000604482015290519081900360640190fd5b600e5481106111775760405162461bcd60e51b81526004018080602001828103825260328152602001806136716032913960400191505060405180910390fd5b6008546040805163079cc67960e41b815233600482015260248101869052905183926001600160a01b0316916379cc679091604480830192600092919082900301818387803b1580156111c957600080fd5b505af11580156111dd573d6000803e3d6000fd5b50506009546001600160a01b031691506340c10f1990503361120784610ce0896305f5e100612db8565b6040518363ffffffff1660e01b815260040180836001600160a01b0316815260200182815260200192505050602060405180830381600087803b15801561124d57600080fd5b505af1158015611261573d6000803e3d6000fd5b505050506040513d602081101561127757600080fd5b50611282905061305f565b60408051858152905133917fdbf5270c3cf4729fec4fdac76fda864aa4f3d14d657ad21772ac28f627141ed9919081900360200190a25050436000908152602081815260408083203284529091528082208054600160ff19918216811790925533845291909220805490911690911790555050565b6002546001600160a01b031690565b60115490565b611314612eb6565b156113505760405162461bcd60e51b81526004018080602001828103825260268152602001806137ea6026913960400191505060405180910390fd5b611358612ed5565b156113945760405162461bcd60e51b81526004018080602001828103825260268152602001806137ea6026913960400191505060405180910390fd5b60065460ff16156113e1576040805162461bcd60e51b8152602060048201526012602482015271151c99585cdd5c9e4e881b5a59dc985d195960721b604482015290519081900360640190fd5b600454421015611431576040805162461bcd60e51b8152602060048201526016602482015275115c1bd8da0e881b9bdd081cdd185c9d1959081e595d60521b604482015290519081900360640190fd5b6004544211611480576040805162461bcd60e51b8152602060048201526016602482015275115c1bd8da0e881b9bdd081cdd185c9d1959081e595d60521b604482015290519081900360640190fd5b611488612c7d565b61149061231c565b10156114d8576040805162461bcd60e51b8152602060048201526012602482015271115c1bd8da0e881b9bdd08185b1b1bddd95960721b604482015290519081900360640190fd5b6008546040805163570ca73560e01b8152905130926001600160a01b03169163570ca735916004808301926020929190829003018186803b15801561151c57600080fd5b505afa158015611530573d6000803e3d6000fd5b505050506040513d602081101561154657600080fd5b50516001600160a01b03161480156115d457506009546040805163570ca73560e01b8152905130926001600160a01b03169163570ca735916004808301926020929190829003018186803b15801561159d57600080fd5b505afa1580156115b1573d6000803e3d6000fd5b505050506040513d60208110156115c757600080fd5b50516001600160a01b0316145b80156116565750600a546040805163570ca73560e01b8152905130926001600160a01b03169163570ca735916004808301926020929190829003018186803b15801561161f57600080fd5b505afa158015611633573d6000803e3d6000fd5b505050506040513d602081101561164957600080fd5b50516001600160a01b0316145b80156116d85750600b546040805163570ca73560e01b8152905130926001600160a01b03169163570ca735916004808301926020929190829003018186803b1580156116a157600080fd5b505afa1580156116b5573d6000803e3d6000fd5b505050506040513d60208110156116cb57600080fd5b50516001600160a01b0316145b611717576040805162461bcd60e51b815260206004820152601e602482015260008051602061374c833981519152604482015290519081900360640190fd5b61171f61305f565b600d54600090611737906001600160a01b0316612ef4565b9050600f5481116117485750611c3d565b60006117d0601154600860009054906101000a90046001600160a01b03166001600160a01b03166318160ddd6040518163ffffffff1660e01b815260040160206040518083038186803b15801561179e57600080fd5b505afa1580156117b2573d6000803e3d6000fd5b505050506040513d60208110156117c857600080fd5b505190612fc6565b905060006117e9600e5484612fc690919063ffffffff16565b905060006117ff6305f5e100610ce08585612db8565b600854604080516340c10f1960e01b81523060048201526024810184905290519293506001600160a01b03909116916340c10f19916044808201926020929091908290030181600087803b15801561185657600080fd5b505af115801561186a573d6000803e3d6000fd5b505050506040513d602081101561188057600080fd5b505060135460009061189b906103e890610ce0908590612db8565b90508015611964576008546007546040805163a9059cbb60e01b81526001600160a01b039283166004820152602481018590529051919092169163a9059cbb9160448083019260209291908290030181600087803b1580156118fc57600080fd5b505af1158015611910573d6000803e3d6000fd5b505050506040513d602081101561192657600080fd5b5050604080514281526020810183905281517f0d3bfb2b4f5da80070611197dca8a26201730969c74aa0d961803c510c8a82d3929181900390910190a15b60006119816103e8610ce060125486612db890919063ffffffff16565b90508015611a94576006546008546119ad916001600160a01b03918216916201000090910416836131c2565b60065460085460408051635ff03ed360e11b81526001600160a01b0392831660048201526024810185905260606044820152602060648201527f54726561737572793a20536569676e696f7261676520416c6c6f636174696f6e60848201529051620100009093049091169163bfe07da69160a48082019260009290919082900301818387803b158015611a4057600080fd5b505af1158015611a54573d6000803e3d6000fd5b5050604080514281526020810185905281517f4caa64211297e9263667fef70732dc65ca7a8e8c60dc72539ed94518628212d09450908190039091019150a15b6000611aa08383612e1a565b9050611aac8482612fc6565b93506000611b0d85611b08601154600960009054906101000a90046001600160a01b03166001600160a01b03166318160ddd6040518163ffffffff1660e01b815260040160206040518083038186803b15801561179e57600080fd5b612fb0565b90508015611b6157601154611b229082612e1a565b601155604080514281526020810183905281517ff705142bf09f04297640495ddf7c59b7fd6f51894c5aea9602d631cf05f0efc2929181900390910190a15b6000611b6d8683612fc6565b90508015611c3357600b54600854611b92916001600160a01b039182169116836131c2565b600b54604080516397ffe1d760e01b81526004810184905290516001600160a01b03909216916397ffe1d79160248082019260009290919082900301818387803b158015611bdf57600080fd5b505af1158015611bf3573d6000803e3d6000fd5b5050604080514281526020810185905281517f03ca7276ab7799bf73fb79d27ff0610cd7049574f2508ef8445162833d439aea9450908190039091019150a15b5050505050505050505b42600555436000908152602081815260408083203284529091528082208054600160ff1991821681179092553384529190922080549091169091179055565b600b546001600160a01b031681565b6009546001600160a01b031681565b600c546001600160a01b031681565b611cb1613121565b6001546001600160a01b03908116911614611d13576040805162461bcd60e51b815260206004820181905260248201527f4f776e61626c653a2063616c6c6572206973206e6f7420746865206f776e6572604482015290519081900360640190fd5b6001546040516000916001600160a01b0316907f8be0079c531659141344cd1fd0a4f28419497f9722a3daafe3b4186f6b6457e0908390a3600180546001600160a01b0319169055565b6008546040805163570ca73560e01b8152905130926001600160a01b03169163570ca735916004808301926020929190829003018186803b158015611da157600080fd5b505afa158015611db5573d6000803e3d6000fd5b505050506040513d6020811015611dcb57600080fd5b50516001600160a01b0316148015611e5957506009546040805163570ca73560e01b8152905130926001600160a01b03169163570ca735916004808301926020929190829003018186803b158015611e2257600080fd5b505afa158015611e36573d6000803e3d6000fd5b505050506040513d6020811015611e4c57600080fd5b50516001600160a01b0316145b8015611edb5750600a546040805163570ca73560e01b8152905130926001600160a01b03169163570ca735916004808301926020929190829003018186803b158015611ea457600080fd5b505afa158015611eb8573d6000803e3d6000fd5b505050506040513d6020811015611ece57600080fd5b50516001600160a01b0316145b8015611f5d5750600b546040805163570ca73560e01b8152905130926001600160a01b03169163570ca735916004808301926020929190829003018186803b158015611f2657600080fd5b505afa158015611f3a573d6000803e3d6000fd5b505050506040513d6020811015611f5057600080fd5b50516001600160a01b0316145b611f9c576040805162461bcd60e51b815260206004820152601e602482015260008051602061374c833981519152604482015290519081900360640190fd5b600654610100900460ff1615611ff1576040805162461bcd60e51b8152602060048201526015602482015274151c99585cdd5c9e4e881a5b9a5d1a585b1a5e9959605a1b604482015290519081900360640190fd5b600854604080516370a0823160e01b815230600482015290516001600160a01b03909216916342966c689183916370a0823191602480820192602092909190829003018186803b15801561204457600080fd5b505afa158015612058573d6000803e3d6000fd5b505050506040513d602081101561206e57600080fd5b5051604080516001600160e01b031960e085901b168152600481019290925251602480830192600092919082900301818387803b1580156120ae57600080fd5b505af11580156120c2573d6000803e3d6000fd5b5050600854604080516370a0823160e01b815230600482015290516001600160a01b0390921693506370a082319250602480820192602092909190829003018186803b15801561211157600080fd5b505afa158015612125573d6000803e3d6000fd5b505050506040513d602081101561213b57600080fd5b50516011556006805461ff00191661010017905560408051438152905133917f25ff68dd81b34665b5ba7e553ee5511bf6812e12adb4a7e2c0d9e26b3099ce79919081900360200190a2565b6103e881565b6001546001600160a01b031690565b6002546001600160a01b031633146121e55760405162461bcd60e51b815260040180806020018281038252602481526020018061379c6024913960400191505060405180910390fd5b601281905560408051828152905133917f25ba333c9a98f8f18bb40ff507a4a1fb423614f442759c754d038a9de3f81cf3919081900360200190a250565b6008546001600160a01b031681565b600a546001600160a01b031681565b600e5481565b6002546001600160a01b031633146122905760405162461bcd60e51b815260040180806020018281038252602481526020018061379c6024913960400191505060405180910390fd5b600780546001600160a01b0383166001600160a01b03199091168117909155604080519182525133917ff87e12ba363db684b1b69a530d850a8a3f416932cd031e008ef71e42a1d88450919081900360200190a250565b6305f5e10081565b6006546201000090046001600160a01b031681565b600d54600090610ce6906001600160a01b0316612ef4565b6000610ce6600354610ce0600454612336600454426132d5565b90612fc6565b600c54600090610ce6906001600160a01b0316612ef4565b60125481565b6000610ce661237360035461236d612c7d565b90612db8565b60045490612e1a565b60045490565b6002546001600160a01b031633146123cb5760405162461bcd60e51b815260040180806020018281038252602481526020018061379c6024913960400191505060405180910390fd5b6008546040805163570ca73560e01b8152905130926001600160a01b03169163570ca735916004808301926020929190829003018186803b15801561240f57600080fd5b505afa158015612423573d6000803e3d6000fd5b505050506040513d602081101561243957600080fd5b50516001600160a01b03161480156124c757506009546040805163570ca73560e01b8152905130926001600160a01b03169163570ca735916004808301926020929190829003018186803b15801561249057600080fd5b505afa1580156124a4573d6000803e3d6000fd5b505050506040513d60208110156124ba57600080fd5b50516001600160a01b0316145b80156125495750600a546040805163570ca73560e01b8152905130926001600160a01b03169163570ca735916004808301926020929190829003018186803b15801561251257600080fd5b505afa158015612526573d6000803e3d6000fd5b505050506040513d602081101561253c57600080fd5b50516001600160a01b0316145b80156125cb5750600b546040805163570ca73560e01b8152905130926001600160a01b03169163570ca735916004808301926020929190829003018186803b15801561259457600080fd5b505afa1580156125a8573d6000803e3d6000fd5b505050506040513d60208110156125be57600080fd5b50516001600160a01b0316145b61260a576040805162461bcd60e51b815260206004820152601e602482015260008051602061374c833981519152604482015290519081900360640190fd5b60065460ff1615612657576040805162461bcd60e51b8152602060048201526012602482015271151c99585cdd5c9e4e881b5a59dc985d195960721b604482015290519081900360640190fd5b600854604080516329605e7760e01b81526001600160a01b038481166004830152915191909216916329605e7791602480830192600092919082900301818387803b1580156126a557600080fd5b505af11580156126b9573d6000803e3d6000fd5b50506008546040805163f2fde38b60e01b81526001600160a01b038681166004830152915191909216935063f2fde38b9250602480830192600092919082900301818387803b15801561270b57600080fd5b505af115801561271f573d6000803e3d6000fd5b5050600854604080516370a0823160e01b815230600482015290516001600160a01b03909216935063a9059cbb9250849184916370a08231916024808301926020929190829003018186803b15801561277757600080fd5b505afa15801561278b573d6000803e3d6000fd5b505050506040513d60208110156127a157600080fd5b5051604080516001600160e01b031960e086901b1681526001600160a01b03909316600484015260248301919091525160448083019260209291908290030181600087803b1580156127f257600080fd5b505af1158015612806573d6000803e3d6000fd5b505050506040513d602081101561281c57600080fd5b5050600954604080516329605e7760e01b81526001600160a01b038481166004830152915191909216916329605e7791602480830192600092919082900301818387803b15801561286c57600080fd5b505af1158015612880573d6000803e3d6000fd5b50506009546040805163f2fde38b60e01b81526001600160a01b038681166004830152915191909216935063f2fde38b9250602480830192600092919082900301818387803b1580156128d257600080fd5b505af11580156128e6573d6000803e3d6000fd5b5050600954604080516370a0823160e01b815230600482015290516001600160a01b03909216935063a9059cbb9250849184916370a08231916024808301926020929190829003018186803b15801561293e57600080fd5b505afa158015612952573d6000803e3d6000fd5b505050506040513d602081101561296857600080fd5b5051604080516001600160e01b031960e086901b1681526001600160a01b03909316600484015260248301919091525160448083019260209291908290030181600087803b1580156129b957600080fd5b505af11580156129cd573d6000803e3d6000fd5b505050506040513d60208110156129e357600080fd5b5050600a54604080516329605e7760e01b81526001600160a01b038481166004830152915191909216916329605e7791602480830192600092919082900301818387803b158015612a3357600080fd5b505af1158015612a47573d6000803e3d6000fd5b5050600a546040805163f2fde38b60e01b81526001600160a01b038681166004830152915191909216935063f2fde38b9250602480830192600092919082900301818387803b158015612a9957600080fd5b505af1158015612aad573d6000803e3d6000fd5b5050600a54604080516370a0823160e01b815230600482015290516001600160a01b03909216935063a9059cbb9250849184916370a08231916024808301926020929190829003018186803b158015612b0557600080fd5b505afa158015612b19573d6000803e3d6000fd5b505050506040513d6020811015612b2f57600080fd5b5051604080516001600160e01b031960e086901b1681526001600160a01b03909316600484015260248301919091525160448083019260209291908290030181600087803b158015612b8057600080fd5b505af1158015612b94573d6000803e3d6000fd5b505050506040513d6020811015612baa57600080fd5b50506006805460ff191660011790556040516001600160a01b038216907f0caca70b66aed56b0630989a049110023c5a3f37e0ea4b6ce96fc747663f3ebc90600090a250565b60105481565b6002546001600160a01b03163314612c3f5760405162461bcd60e51b815260040180806020018281038252602481526020018061379c6024913960400191505060405180910390fd5b601381905560408051828152905133917f1bea9736c359e1c629b577d89033b7e78cf7e7d211ab808a0ccd1213e198fc9f919081900360200190a250565b60006005546004541415612c9a57612c93610cc1565b9050610c39565b610ce66001612ca7610cc1565b90612e1a565b612cb5613121565b6001546001600160a01b03908116911614612d17576040805162461bcd60e51b815260206004820181905260248201527f4f776e61626c653a2063616c6c6572206973206e6f7420746865206f776e6572604482015290519081900360640190fd5b6001600160a01b038116612d5c5760405162461bcd60e51b815260040180806020018281038252602681526020018061361d6026913960400191505060405180910390fd5b6001546040516001600160a01b038084169216907f8be0079c531659141344cd1fd0a4f28419497f9722a3daafe3b4186f6b6457e090600090a3600180546001600160a01b0319166001600160a01b0392909216919091179055565b600082612dc757506000612e14565b82820282848281612dd457fe5b0414612e115760405162461bcd60e51b81526004018080602001828103825260218152602001806136f56021913960400191505060405180910390fd5b90505b92915050565b600082820183811015612e11576040805162461bcd60e51b815260206004820152601b60248201527f536166654d6174683a206164646974696f6e206f766572666c6f770000000000604482015290519081900360640190fd5b6000612e1183836040518060400160405280601a81526020017f536166654d6174683a206469766973696f6e206279207a65726f0000000000008152506132e5565b4360009081526020818152604080832032845290915290205460ff1690565b4360009081526020818152604080832033845290915290205460ff1690565b60085460408051633ddac95360e01b81526001600160a01b039283166004820152670de0b6b3a764000060248201529051600092841691633ddac953916044808301926020929190829003018186803b158015612f5057600080fd5b505afa925050508015612f7557506040513d6020811015612f7057600080fd5b505160015b612e145760405162461bcd60e51b81526004018080602001828103825260368152602001806137166036913960400191505060405180910390fd5b6000818310612fbf5781612e11565b5090919050565b6000612e1183836040518060400160405280601e81526020017f536166654d6174683a207375627472616374696f6e206f766572666c6f770000815250613387565b604080516001600160a01b038416602482015260448082018490528251808303909101815260649091019091526020810180516001600160e01b031663a9059cbb60e01b17905261305a9084906133e1565b505050565b600c60009054906101000a90046001600160a01b03166001600160a01b031663a2e620456040518163ffffffff1660e01b8152600401600060405180830381600087803b1580156130af57600080fd5b505af19250505080156130c0575060015b50600d60009054906101000a90046001600160a01b03166001600160a01b031663a2e620456040518163ffffffff1660e01b8152600401600060405180830381600087803b15801561311157600080fd5b505af1925050508015610cb55750565b3390565b6001600160a01b03811661316a5760405162461bcd60e51b815260040180806020018281038252602d8152602001806136a3602d913960400191505060405180910390fd5b6040516001600160a01b038216906000907f74da04524d50c64947f5dd5381ef1a4dca5cba8ed1d816243f9e48aa0b5617ed908290a3600280546001600160a01b0319166001600160a01b0392909216919091179055565b801580613248575060408051636eb1769f60e11b81523060048201526001600160a01b03848116602483015291519185169163dd62ed3e91604480820192602092909190829003018186803b15801561321a57600080fd5b505afa15801561322e573d6000803e3d6000fd5b505050506040513d602081101561324457600080fd5b5051155b6132835760405162461bcd60e51b81526004018080602001828103825260368152602001806138106036913960400191505060405180910390fd5b604080516001600160a01b038416602482015260448082018490528251808303909101815260649091019091526020810180516001600160e01b031663095ea7b360e01b17905261305a9084906133e1565b600081831015612fbf5781612e11565b600081836133715760405162461bcd60e51b81526004018080602001828103825283818151815260200191508051906020019080838360005b8381101561333657818101518382015260200161331e565b50505050905090810190601f1680156133635780820380516001836020036101000a031916815260200191505b509250505060405180910390fd5b50600083858161337d57fe5b0495945050505050565b600081848411156133d95760405162461bcd60e51b815260206004820181815283516024840152835190928392604490910191908501908083836000831561333657818101518382015260200161331e565b505050900390565b6060613436826040518060400160405280602081526020017f5361666545524332303a206c6f772d6c6576656c2063616c6c206661696c6564815250856001600160a01b03166134929092919063ffffffff16565b80519091501561305a5780806020019051602081101561345557600080fd5b505161305a5760405162461bcd60e51b815260040180806020018281038252602a8152602001806137c0602a913960400191505060405180910390fd5b60606134a184846000856134a9565b949350505050565b60606134b485613616565b613505576040805162461bcd60e51b815260206004820152601d60248201527f416464726573733a2063616c6c20746f206e6f6e2d636f6e7472616374000000604482015290519081900360640190fd5b60006060866001600160a01b031685876040518082805190602001908083835b602083106135445780518252601f199092019160209182019101613525565b6001836020036101000a03801982511681845116808217855250505050505090500191505060006040518083038185875af1925050503d80600081146135a6576040519150601f19603f3d011682016040523d82523d6000602084013e6135ab565b606091505b509150915081156135bf5791506134a19050565b8051156135cf5780518082602001fd5b60405162461bcd60e51b815260206004820181815286516024840152865187939192839260440191908501908083836000831561333657818101518382015260200161331e565b3b15159056fe4f776e61626c653a206e6577206f776e657220697320746865207a65726f206164647265737354726561737572793a2063616e6e6f742072656465656d20626f6e64732077697468207a65726f20616d6f756e7454726561737572793a20636173685072696365206e6f7420656c696769626c6520666f7220626f6e642070757263686173656f70657261746f723a207a65726f206164647265737320676976656e20666f72206e6577206f70657261746f7254726561737572793a20747265617375727920686173206e6f206d6f726520627564676574536166654d6174683a206d756c7469706c69636174696f6e206f766572666c6f7754726561737572793a206661696c656420746f20636f6e73756c7420636173682070726963652066726f6d20746865206f7261636c6554726561737572793a206e656564206d6f7265207065726d697373696f6e000054726561737572793a2063616e6e6f7420707572636861736520626f6e64732077697468207a65726f20616d6f756e746f70657261746f723a2063616c6c6572206973206e6f7420746865206f70657261746f725361666545524332303a204552433230206f7065726174696f6e20646964206e6f742073756363656564436f6e747261637447756172643a206f6e6520626c6f636b2c206f6e652066756e6374696f6e5361666545524332303a20617070726f76652066726f6d206e6f6e2d7a65726f20746f206e6f6e2d7a65726f20616c6c6f77616e6365a2646970667358221220b1c3ac00a2c4c8255bd254e24b839892888cfd4e4938dab99ef95b2ab5ab4bfc64736f6c634300060c0033536166654d6174683a206d756c7469706c69636174696f6e206f766572666c6f77",
  "linkReferences": {},
  "deployedLinkReferences": {}
}