{
  "_format": "hh-sol-artifact-1",
  "contractName": "Treasury",
  "sourceName": "contracts/Treasury.sol",
  "abi": [
    {
      "inputs": [
        {
          "internalType": "address",
          "name": "_cash",
          "type": "address"
        },
        {
          "internalType": "address",
          "name": "_bond",
          "type": "address"
        },
        {
          "internalType": "address",
          "name": "_share",
          "type": "address"
        },
        {
          "internalType": "address",
          "name": "_bondOracle",
          "type": "address"
        },
        {
          "internalType": "address",
          "name": "_seigniorageOracle",
          "type": "address"
        },
        {
          "internalType": "address",
          "name": "_boardroom",
          "type": "address"
        },
        {
          "internalType": "address",
          "name": "_fund",
          "type": "address"
        },
        {
          "internalType": "address",
          "name": "_devFund",
          "type": "address"
        },
        {
          "internalType": "uint256",
          "name": "_startTime",
          "type": "uint256"
        }
      ],
      "stateMutability": "nonpayable",
      "type": "constructor"
    },
    {
      "anonymous": false,
      "inputs": [
        {
          "indexed": false,
          "internalType": "uint256",
          "name": "timestamp",
          "type": "uint256"
        },
        {
          "indexed": false,
          "internalType": "uint256",
          "name": "seigniorage",
          "type": "uint256"
        }
      ],
      "name": "BoardroomFunded",
      "type": "event"
    },
    {
      "anonymous": false,
      "inputs": [
        {
          "indexed": true,
          "internalType": "address",
          "name": "from",
          "type": "address"
        },
        {
          "indexed": false,
          "internalType": "uint256",
          "name": "amount",
          "type": "uint256"
        }
      ],
      "name": "BoughtBonds",
      "type": "event"
    },
    {
      "anonymous": false,
      "inputs": [
        {
          "indexed": true,
          "internalType": "address",
          "name": "operator",
          "type": "address"
        },
        {
          "indexed": false,
          "internalType": "address",
          "name": "newFund",
          "type": "address"
        }
      ],
      "name": "ContributionPoolChanged",
      "type": "event"
    },
    {
      "anonymous": false,
      "inputs": [
        {
          "indexed": false,
          "internalType": "uint256",
          "name": "timestamp",
          "type": "uint256"
        },
        {
          "indexed": false,
          "internalType": "uint256",
          "name": "seigniorage",
          "type": "uint256"
        }
      ],
      "name": "ContributionPoolFunded",
      "type": "event"
    },
    {
      "anonymous": false,
      "inputs": [
        {
          "indexed": true,
          "internalType": "address",
          "name": "operator",
          "type": "address"
        },
        {
          "indexed": false,
          "internalType": "uint256",
          "name": "newRate",
          "type": "uint256"
        }
      ],
      "name": "ContributionPoolRateChanged",
      "type": "event"
    },
    {
      "anonymous": false,
      "inputs": [
        {
          "indexed": true,
          "internalType": "address",
          "name": "operator",
          "type": "address"
        },
        {
          "indexed": false,
          "internalType": "address",
          "name": "newDevFund",
          "type": "address"
        }
      ],
      "name": "DevFundChanged",
      "type": "event"
    },
    {
      "anonymous": false,
      "inputs": [
        {
          "indexed": true,
          "internalType": "address",
          "name": "operator",
          "type": "address"
        },
        {
          "indexed": false,
          "internalType": "uint256",
          "name": "newRate",
          "type": "uint256"
        }
      ],
      "name": "DevFundRateChanged",
      "type": "event"
    },
    {
      "anonymous": false,
      "inputs": [
        {
          "indexed": false,
          "internalType": "uint256",
          "name": "timestamp",
          "type": "uint256"
        },
        {
          "indexed": false,
          "internalType": "uint256",
          "name": "seigniorage",
          "type": "uint256"
        }
      ],
      "name": "DevPoolFunded",
      "type": "event"
    },
    {
      "anonymous": false,
      "inputs": [
        {
          "indexed": true,
          "internalType": "address",
          "name": "executor",
          "type": "address"
        },
        {
          "indexed": false,
          "internalType": "uint256",
          "name": "at",
          "type": "uint256"
        }
      ],
      "name": "Initialized",
      "type": "event"
    },
    {
      "anonymous": false,
      "inputs": [
        {
          "indexed": true,
          "internalType": "address",
          "name": "target",
          "type": "address"
        }
      ],
      "name": "Migration",
      "type": "event"
    },
    {
      "anonymous": false,
      "inputs": [
        {
          "indexed": true,
          "internalType": "address",
          "name": "previousOperator",
          "type": "address"
        },
        {
          "indexed": true,
          "internalType": "address",
          "name": "newOperator",
          "type": "address"
        }
      ],
      "name": "OperatorTransferred",
      "type": "event"
    },
    {
      "anonymous": false,
      "inputs": [
        {
          "indexed": true,
          "internalType": "address",
          "name": "previousOwner",
          "type": "address"
        },
        {
          "indexed": true,
          "internalType": "address",
          "name": "newOwner",
          "type": "address"
        }
      ],
      "name": "OwnershipTransferred",
      "type": "event"
    },
    {
      "anonymous": false,
      "inputs": [
        {
          "indexed": true,
          "internalType": "address",
          "name": "from",
          "type": "address"
        },
        {
          "indexed": false,
          "internalType": "uint256",
          "name": "amount",
          "type": "uint256"
        }
      ],
      "name": "RedeemedBonds",
      "type": "event"
    },
    {
      "anonymous": false,
      "inputs": [
        {
          "indexed": false,
          "internalType": "uint256",
          "name": "timestamp",
          "type": "uint256"
        },
        {
          "indexed": false,
          "internalType": "uint256",
          "name": "seigniorage",
          "type": "uint256"
        }
      ],
      "name": "TreasuryFunded",
      "type": "event"
    },
    {
      "inputs": [],
      "name": "FUND_RATE_DENOMINATOR",
      "outputs": [
        {
          "internalType": "uint256",
          "name": "",
          "type": "uint256"
        }
      ],
      "stateMutability": "view",
      "type": "function"
    },
    {
      "inputs": [],
      "name": "WBTC_PRICE_PRECISION",
      "outputs": [
        {
          "internalType": "uint256",
          "name": "",
          "type": "uint256"
        }
      ],
      "stateMutability": "view",
      "type": "function"
    },
    {
      "inputs": [],
      "name": "allocateSeigniorage",
      "outputs": [],
      "stateMutability": "nonpayable",
      "type": "function"
    },
    {
      "inputs": [],
      "name": "boardroom",
      "outputs": [
        {
          "internalType": "address",
          "name": "",
          "type": "address"
        }
      ],
      "stateMutability": "view",
      "type": "function"
    },
    {
      "inputs": [],
      "name": "bond",
      "outputs": [
        {
          "internalType": "address",
          "name": "",
          "type": "address"
        }
      ],
      "stateMutability": "view",
      "type": "function"
    },
    {
      "inputs": [],
      "name": "bondDepletionFloor",
      "outputs": [
        {
          "internalType": "uint256",
          "name": "",
          "type": "uint256"
        }
      ],
      "stateMutability": "view",
      "type": "function"
    },
    {
      "inputs": [],
      "name": "bondOracle",
      "outputs": [
        {
          "internalType": "address",
          "name": "",
          "type": "address"
        }
      ],
      "stateMutability": "view",
      "type": "function"
    },
    {
      "inputs": [
        {
          "internalType": "uint256",
          "name": "amount",
          "type": "uint256"
        },
        {
          "internalType": "uint256",
          "name": "targetPrice",
          "type": "uint256"
        }
      ],
      "name": "buyBonds",
      "outputs": [],
      "stateMutability": "nonpayable",
      "type": "function"
    },
    {
      "inputs": [],
      "name": "cash",
      "outputs": [
        {
          "internalType": "address",
          "name": "",
          "type": "address"
        }
      ],
      "stateMutability": "view",
      "type": "function"
    },
    {
      "inputs": [],
      "name": "cashPriceCeiling",
      "outputs": [
        {
          "internalType": "uint256",
          "name": "",
          "type": "uint256"
        }
      ],
      "stateMutability": "view",
      "type": "function"
    },
    {
      "inputs": [],
      "name": "cashPriceOne",
      "outputs": [
        {
          "internalType": "uint256",
          "name": "",
          "type": "uint256"
        }
      ],
      "stateMutability": "view",
      "type": "function"
    },
    {
      "inputs": [],
      "name": "devFund",
      "outputs": [
        {
          "internalType": "address",
          "name": "",
          "type": "address"
        }
      ],
      "stateMutability": "view",
      "type": "function"
    },
    {
      "inputs": [],
      "name": "devFundAllocationRate",
      "outputs": [
        {
          "internalType": "uint256",
          "name": "",
          "type": "uint256"
        }
      ],
      "stateMutability": "view",
      "type": "function"
    },
    {
      "inputs": [],
      "name": "fund",
      "outputs": [
        {
          "internalType": "address",
          "name": "",
          "type": "address"
        }
      ],
      "stateMutability": "view",
      "type": "function"
    },
    {
      "inputs": [],
      "name": "fundAllocationRate",
      "outputs": [
        {
          "internalType": "uint256",
          "name": "",
          "type": "uint256"
        }
      ],
      "stateMutability": "view",
      "type": "function"
    },
    {
      "inputs": [],
      "name": "getBondOraclePrice",
      "outputs": [
        {
          "internalType": "uint256",
          "name": "",
          "type": "uint256"
        }
      ],
      "stateMutability": "view",
      "type": "function"
    },
    {
      "inputs": [],
      "name": "getCurrentEpoch",
      "outputs": [
        {
          "internalType": "uint256",
          "name": "",
          "type": "uint256"
        }
      ],
      "stateMutability": "view",
      "type": "function"
    },
    {
      "inputs": [],
      "name": "getPeriod",
      "outputs": [
        {
          "internalType": "uint256",
          "name": "",
          "type": "uint256"
        }
      ],
      "stateMutability": "view",
      "type": "function"
    },
    {
      "inputs": [],
      "name": "getReserve",
      "outputs": [
        {
          "internalType": "uint256",
          "name": "",
          "type": "uint256"
        }
      ],
      "stateMutability": "view",
      "type": "function"
    },
    {
      "inputs": [],
      "name": "getSeigniorageOraclePrice",
      "outputs": [
        {
          "internalType": "uint256",
          "name": "",
          "type": "uint256"
        }
      ],
      "stateMutability": "view",
      "type": "function"
    },
    {
      "inputs": [],
      "name": "getStartTime",
      "outputs": [
        {
          "internalType": "uint256",
          "name": "",
          "type": "uint256"
        }
      ],
      "stateMutability": "view",
      "type": "function"
    },
    {
      "inputs": [],
      "name": "initialize",
      "outputs": [],
      "stateMutability": "nonpayable",
      "type": "function"
    },
    {
      "inputs": [],
      "name": "initialized",
      "outputs": [
        {
          "internalType": "bool",
          "name": "",
          "type": "bool"
        }
      ],
      "stateMutability": "view",
      "type": "function"
    },
    {
      "inputs": [],
      "name": "isOperator",
      "outputs": [
        {
          "internalType": "bool",
          "name": "",
          "type": "bool"
        }
      ],
      "stateMutability": "view",
      "type": "function"
    },
    {
      "inputs": [
        {
          "internalType": "address",
          "name": "target",
          "type": "address"
        }
      ],
      "name": "migrate",
      "outputs": [],
      "stateMutability": "nonpayable",
      "type": "function"
    },
    {
      "inputs": [],
      "name": "migrated",
      "outputs": [
        {
          "internalType": "bool",
          "name": "",
          "type": "bool"
        }
      ],
      "stateMutability": "view",
      "type": "function"
    },
    {
      "inputs": [],
      "name": "nextEpochPoint",
      "outputs": [
        {
          "internalType": "uint256",
          "name": "",
          "type": "uint256"
        }
      ],
      "stateMutability": "view",
      "type": "function"
    },
    {
      "inputs": [],
      "name": "operator",
      "outputs": [
        {
          "internalType": "address",
          "name": "",
          "type": "address"
        }
      ],
      "stateMutability": "view",
      "type": "function"
    },
    {
      "inputs": [],
      "name": "owner",
      "outputs": [
        {
          "internalType": "address",
          "name": "",
          "type": "address"
        }
      ],
      "stateMutability": "view",
      "type": "function"
    },
    {
      "inputs": [
        {
          "internalType": "uint256",
          "name": "amount",
          "type": "uint256"
        },
        {
          "internalType": "uint256",
          "name": "targetPrice",
          "type": "uint256"
        }
      ],
      "name": "redeemBonds",
      "outputs": [],
      "stateMutability": "nonpayable",
      "type": "function"
    },
    {
      "inputs": [],
      "name": "renounceOwnership",
      "outputs": [],
      "stateMutability": "nonpayable",
      "type": "function"
    },
    {
      "inputs": [],
      "name": "seigniorageOracle",
      "outputs": [
        {
          "internalType": "address",
          "name": "",
          "type": "address"
        }
      ],
      "stateMutability": "view",
      "type": "function"
    },
    {
      "inputs": [
        {
          "internalType": "uint256",
          "name": "rate",
          "type": "uint256"
        }
      ],
      "name": "setDevAllocationRate",
      "outputs": [],
      "stateMutability": "nonpayable",
      "type": "function"
    },
    {
      "inputs": [
        {
          "internalType": "address",
          "name": "newDevFund",
          "type": "address"
        }
      ],
      "name": "setDevFund",
      "outputs": [],
      "stateMutability": "nonpayable",
      "type": "function"
    },
    {
      "inputs": [
        {
          "internalType": "address",
          "name": "newFund",
          "type": "address"
        }
      ],
      "name": "setFund",
      "outputs": [],
      "stateMutability": "nonpayable",
      "type": "function"
    },
    {
      "inputs": [
        {
          "internalType": "uint256",
          "name": "rate",
          "type": "uint256"
        }
      ],
      "name": "setFundAllocationRate",
      "outputs": [],
      "stateMutability": "nonpayable",
      "type": "function"
    },
    {
      "inputs": [
        {
          "internalType": "uint256",
          "name": "_period",
          "type": "uint256"
        }
      ],
      "name": "setPeriod",
      "outputs": [],
      "stateMutability": "nonpayable",
      "type": "function"
    },
    {
      "inputs": [],
      "name": "share",
      "outputs": [
        {
          "internalType": "address",
          "name": "",
          "type": "address"
        }
      ],
      "stateMutability": "view",
      "type": "function"
    },
    {
      "inputs": [
        {
          "internalType": "address",
          "name": "newOperator_",
          "type": "address"
        }
      ],
      "name": "transferOperator",
      "outputs": [],
      "stateMutability": "nonpayable",
      "type": "function"
    },
    {
      "inputs": [
        {
          "internalType": "address",
          "name": "newOwner",
          "type": "address"
        }
      ],
      "name": "transferOwnership",
      "outputs": [],
      "stateMutability": "nonpayable",
      "type": "function"
    }
  ],
  "bytecode": "0x60806040526006805461ffff191690556000601155600a60128190556013553480156200002b57600080fd5b5060405162003b7238038062003b7283398181016040526101208110156200005257600080fd5b508051602082015160408301516060840151608085015160a086015160c087015160e0880151610100909801519697959694959394929391929091906201518081600080620000a062000250565b600180546001600160a01b0319166001600160a01b038316908117909155604051919250906000907f8be0079c531659141344cd1fd0a4f28419497f9722a3daafe3b4186f6b6457e0908290a350620000f862000250565b600280546001600160a01b0319166001600160a01b0392831617908190556040519116906000907f74da04524d50c64947f5dd5381ef1a4dca5cba8ed1d816243f9e48aa0b5617ed908290a3600392909255600455600555600880546001600160a01b03199081166001600160a01b038c8116919091179092556009805482168b8416179055600a805482168a8416179055600c80548216898416179055600d80548216888416179055600b805482168784161790556006805462010000600160b01b0319166201000087851602179055600780549091169184169190911790556305f5e100600e8190556200021990606490620002059060699062000254602090811b62002ce217901c565b620002bb60201b62002d441790919060201c565b600f819055506200023d600e546103e86200025460201b62002ce21790919060201c565b60105550620003ac975050505050505050565b3390565b6000826200026557506000620002b5565b828202828482816200027357fe5b0414620002b25760405162461bcd60e51b815260040180806020018281038252602181526020018062003b516021913960400191505060405180910390fd5b90505b92915050565b6000620002b283836040518060400160405280601a81526020017f536166654d6174683a206469766973696f6e206279207a65726f0000000000008152506200030560201b60201c565b60008183620003955760405162461bcd60e51b81526004018080602001828103825283818151815260200191508051906020019080838360005b83811015620003595781810151838201526020016200033f565b50505050905090810190601f168015620003875780820380516001836020036101000a031916815260200191505b509250505060405180910390fd5b506000838581620003a257fe5b0495945050505050565b61379580620003bc6000396000f3fe608060405234801561001057600080fd5b50600436106102485760003560e01c80638129fc1c1161013b578063b8e2cf8e116100b8578063c828371e1161007c578063c828371e14610463578063ce5494bb1461046b578063e03047b714610491578063ee4b1b0814610499578063f2fde38b146104b657610248565b8063b8e2cf8e1461043b578063b97dd9e214610443578063c1a297721461044b578063c1aa390014610453578063c5967c261461045b57610248565b8063a8d5fd65116100ff578063a8d5fd65146103f5578063a9cfc46e146103fd578063ae4db91914610405578063b51ef0511461042b578063b60d42881461043357610248565b80638129fc1c146103b857806384d2976d146103c05780638da5cb5b146103c857806395b1828a146103d0578063961be391146103ed57610248565b80634390d2a8116101c95780635b7561791161018d5780635b756179146103905780635e02c51e1461039857806364c9ec6f146103a05780636d19921d146103a8578063715018a6146103b057610248565b80634390d2a81461034d5780634456eda21461035557806354f04a111461035d578063570ca7351461038057806359bf5d391461038857610248565b80631ed24195116102105780631ed24195146102f557806323ced1351461030f57806329605e77146103175780632c678c641461033d5780633a59c9a81461034557610248565b80630e21750f1461024d5780630f3a9f6514610275578063118ebbf914610292578063132eeaa7146102b5578063158ef93e146102d9575b600080fd5b6102736004803603602081101561026357600080fd5b50356001600160a01b03166104dc565b005b6102736004803603602081101561028b57600080fd5b5035610586565b610273600480360360408110156102a857600080fd5b50803590602001356105d4565b6102bd610bf2565b604080516001600160a01b039092168252519081900360200190f35b6102e1610c01565b604080519115158252519081900360200190f35b6102fd610c0f565b60408051918252519081900360200190f35b6102fd610c15565b6102736004803603602081101561032d57600080fd5b50356001600160a01b0316610c1b565b6102e1610c91565b6102fd610c9a565b6102bd610ca0565b6102e1610caf565b6102736004803603604081101561037357600080fd5b5080359060200135610cd5565b6102bd6112ac565b6102fd6112bb565b6102736112c1565b6102bd611be8565b6102bd611bf7565b6102bd611c06565b610273611c15565b610273611cc9565b6102fd6120f3565b6102bd6120f9565b610273600480360360208110156103e657600080fd5b5035612108565b6102bd61218f565b6102bd61219e565b6102fd6121ad565b6102736004803603602081101561041b57600080fd5b50356001600160a01b03166121b3565b6102fd612253565b6102bd61225b565b6102fd612270565b6102fd61228d565b6102fd612293565b6102fd6122ab565b6102fd6122b1565b6102fd6122d6565b6102736004803603602081101561048157600080fd5b50356001600160a01b03166122dc565b6102fd612b4a565b610273600480360360208110156104af57600080fd5b5035612b50565b610273600480360360208110156104cc57600080fd5b50356001600160a01b0316612bd7565b6002546001600160a01b031633146105255760405162461bcd60e51b81526004018080602001828103825260248152602001806136b66024913960400191505060405180910390fd5b600680546001600160a01b03831662010000810262010000600160b01b031990921691909117909155604080519182525133917f970b0c70d6e9879d19345f9dbfd8bacae71546478b8bb2d8a56ad8927d3d436e919081900360200190a250565b6002546001600160a01b031633146105cf5760405162461bcd60e51b81526004018080602001828103825260248152602001806136b66024913960400191505060405180910390fd5b600355565b6105dc612d86565b156106185760405162461bcd60e51b81526004018080602001828103825260268152602001806137046026913960400191505060405180910390fd5b610620612da5565b1561065c5760405162461bcd60e51b81526004018080602001828103825260268152602001806137046026913960400191505060405180910390fd5b60065460ff16156106a9576040805162461bcd60e51b8152602060048201526012602482015271151c99585cdd5c9e4e881b5a59dc985d195960721b604482015290519081900360640190fd5b6004544210156106f9576040805162461bcd60e51b8152602060048201526016602482015275115c1bd8da0e881b9bdd081cdd185c9d1959081e595d60521b604482015290519081900360640190fd5b6008546040805163570ca73560e01b8152905130926001600160a01b03169163570ca735916004808301926020929190829003018186803b15801561073d57600080fd5b505afa158015610751573d6000803e3d6000fd5b505050506040513d602081101561076757600080fd5b50516001600160a01b03161480156107f557506009546040805163570ca73560e01b8152905130926001600160a01b03169163570ca735916004808301926020929190829003018186803b1580156107be57600080fd5b505afa1580156107d2573d6000803e3d6000fd5b505050506040513d60208110156107e857600080fd5b50516001600160a01b0316145b80156108775750600a546040805163570ca73560e01b8152905130926001600160a01b03169163570ca735916004808301926020929190829003018186803b15801561084057600080fd5b505afa158015610854573d6000803e3d6000fd5b505050506040513d602081101561086a57600080fd5b50516001600160a01b0316145b80156108f95750600b546040805163570ca73560e01b8152905130926001600160a01b03169163570ca735916004808301926020929190829003018186803b1580156108c257600080fd5b505afa1580156108d6573d6000803e3d6000fd5b505050506040513d60208110156108ec57600080fd5b50516001600160a01b0316145b610938576040805162461bcd60e51b815260206004820152601e6024820152600080516020613666833981519152604482015290519081900360640190fd5b600082116109775760405162461bcd60e51b815260040180806020018281038252602e81526020018061355d602e913960400191505060405180910390fd5b600c5460009061098f906001600160a01b0316612dc4565b90508181146109e5576040805162461bcd60e51b815260206004820152601a60248201527f54726561737572793a2063617368207072696365206d6f766564000000000000604482015290519081900360640190fd5b600f548111610a255760405162461bcd60e51b815260040180806020018281038252603281526020018061358b6032913960400191505060405180910390fd5b600854604080516370a0823160e01b8152306004820152905185926001600160a01b0316916370a08231916024808301926020929190829003018186803b158015610a6f57600080fd5b505afa158015610a83573d6000803e3d6000fd5b505050506040513d6020811015610a9957600080fd5b50511015610ad85760405162461bcd60e51b81526004018080602001828103825260258152602001806135ea6025913960400191505060405180910390fd5b610af0610ae760115485612e80565b60115490612e96565b6011556009546040805163079cc67960e41b81523360048201526024810186905290516001600160a01b03909216916379cc67909160448082019260009290919082900301818387803b158015610b4657600080fd5b505af1158015610b5a573d6000803e3d6000fd5b5050600854610b7692506001600160a01b031690503385612ed8565b610b7e612f2f565b60408051848152905133917f9c3478f12dce08d85673d802af16ed5b9ebab8420ffd7b145d65d3157084b2ce919081900360200190a25050436000908152602081815260408083203284529091528082208054600160ff199182168117909255338452919092208054909116909117905550565b600d546001600160a01b031681565b600654610100900460ff1681565b60035490565b600f5481565b610c23612ff1565b6001546001600160a01b03908116911614610c85576040805162461bcd60e51b815260206004820181905260248201527f4f776e61626c653a2063616c6c6572206973206e6f7420746865206f776e6572604482015290519081900360640190fd5b610c8e81612ff5565b50565b60065460ff1681565b60135481565b6007546001600160a01b031681565b6002546000906001600160a01b0316610cc6612ff1565b6001600160a01b031614905090565b610cdd612d86565b15610d195760405162461bcd60e51b81526004018080602001828103825260268152602001806137046026913960400191505060405180910390fd5b610d21612da5565b15610d5d5760405162461bcd60e51b81526004018080602001828103825260268152602001806137046026913960400191505060405180910390fd5b60065460ff1615610daa576040805162461bcd60e51b8152602060048201526012602482015271151c99585cdd5c9e4e881b5a59dc985d195960721b604482015290519081900360640190fd5b600454421015610dfa576040805162461bcd60e51b8152602060048201526016602482015275115c1bd8da0e881b9bdd081cdd185c9d1959081e595d60521b604482015290519081900360640190fd5b6008546040805163570ca73560e01b8152905130926001600160a01b03169163570ca735916004808301926020929190829003018186803b158015610e3e57600080fd5b505afa158015610e52573d6000803e3d6000fd5b505050506040513d6020811015610e6857600080fd5b50516001600160a01b0316148015610ef657506009546040805163570ca73560e01b8152905130926001600160a01b03169163570ca735916004808301926020929190829003018186803b158015610ebf57600080fd5b505afa158015610ed3573d6000803e3d6000fd5b505050506040513d6020811015610ee957600080fd5b50516001600160a01b0316145b8015610f785750600a546040805163570ca73560e01b8152905130926001600160a01b03169163570ca735916004808301926020929190829003018186803b158015610f4157600080fd5b505afa158015610f55573d6000803e3d6000fd5b505050506040513d6020811015610f6b57600080fd5b50516001600160a01b0316145b8015610ffa5750600b546040805163570ca73560e01b8152905130926001600160a01b03169163570ca735916004808301926020929190829003018186803b158015610fc357600080fd5b505afa158015610fd7573d6000803e3d6000fd5b505050506040513d6020811015610fed57600080fd5b50516001600160a01b0316145b611039576040805162461bcd60e51b815260206004820152601e6024820152600080516020613666833981519152604482015290519081900360640190fd5b600082116110785760405162461bcd60e51b81526004018080602001828103825260308152602001806136866030913960400191505060405180910390fd5b600c54600090611090906001600160a01b0316612dc4565b90508181146110e6576040805162461bcd60e51b815260206004820152601a60248201527f54726561737572793a2063617368207072696365206d6f766564000000000000604482015290519081900360640190fd5b600e5481106111265760405162461bcd60e51b815260040180806020018281038252603281526020018061358b6032913960400191505060405180910390fd5b6008546040805163079cc67960e41b815233600482015260248101869052905183926001600160a01b0316916379cc679091604480830192600092919082900301818387803b15801561117857600080fd5b505af115801561118c573d6000803e3d6000fd5b50506009546001600160a01b031691506340c10f199050336111bc846111b6896305f5e100612ce2565b90612d44565b6040518363ffffffff1660e01b815260040180836001600160a01b0316815260200182815260200192505050602060405180830381600087803b15801561120257600080fd5b505af1158015611216573d6000803e3d6000fd5b505050506040513d602081101561122c57600080fd5b506112379050612f2f565b60408051858152905133917fdbf5270c3cf4729fec4fdac76fda864aa4f3d14d657ad21772ac28f627141ed9919081900360200190a25050436000908152602081815260408083203284529091528082208054600160ff19918216811790925533845291909220805490911690911790555050565b6002546001600160a01b031690565b60115490565b6112c9612d86565b156113055760405162461bcd60e51b81526004018080602001828103825260268152602001806137046026913960400191505060405180910390fd5b61130d612da5565b156113495760405162461bcd60e51b81526004018080602001828103825260268152602001806137046026913960400191505060405180910390fd5b60065460ff1615611396576040805162461bcd60e51b8152602060048201526012602482015271151c99585cdd5c9e4e881b5a59dc985d195960721b604482015290519081900360640190fd5b6004544210156113e6576040805162461bcd60e51b8152602060048201526016602482015275115c1bd8da0e881b9bdd081cdd185c9d1959081e595d60521b604482015290519081900360640190fd5b6113ee6122b1565b421015611437576040805162461bcd60e51b8152602060048201526012602482015271115c1bd8da0e881b9bdd08185b1b1bddd95960721b604482015290519081900360640190fd5b6008546040805163570ca73560e01b8152905130926001600160a01b03169163570ca735916004808301926020929190829003018186803b15801561147b57600080fd5b505afa15801561148f573d6000803e3d6000fd5b505050506040513d60208110156114a557600080fd5b50516001600160a01b031614801561153357506009546040805163570ca73560e01b8152905130926001600160a01b03169163570ca735916004808301926020929190829003018186803b1580156114fc57600080fd5b505afa158015611510573d6000803e3d6000fd5b505050506040513d602081101561152657600080fd5b50516001600160a01b0316145b80156115b55750600a546040805163570ca73560e01b8152905130926001600160a01b03169163570ca735916004808301926020929190829003018186803b15801561157e57600080fd5b505afa158015611592573d6000803e3d6000fd5b505050506040513d60208110156115a857600080fd5b50516001600160a01b0316145b80156116375750600b546040805163570ca73560e01b8152905130926001600160a01b03169163570ca735916004808301926020929190829003018186803b15801561160057600080fd5b505afa158015611614573d6000803e3d6000fd5b505050506040513d602081101561162a57600080fd5b50516001600160a01b0316145b611676576040805162461bcd60e51b815260206004820152601e6024820152600080516020613666833981519152604482015290519081900360640190fd5b61167e612f2f565b600d54600090611696906001600160a01b0316612dc4565b9050600f5481116116a75750611b9c565b600061172f601154600860009054906101000a90046001600160a01b03166001600160a01b03166318160ddd6040518163ffffffff1660e01b815260040160206040518083038186803b1580156116fd57600080fd5b505afa158015611711573d6000803e3d6000fd5b505050506040513d602081101561172757600080fd5b505190612e96565b90506000611748600e5484612e9690919063ffffffff16565b9050600061175e6305f5e1006111b68585612ce2565b600854604080516340c10f1960e01b81523060048201526024810184905290519293506001600160a01b03909116916340c10f19916044808201926020929091908290030181600087803b1580156117b557600080fd5b505af11580156117c9573d6000803e3d6000fd5b505050506040513d60208110156117df57600080fd5b50506013546000906117fa906103e8906111b6908590612ce2565b905080156118c3576008546007546040805163a9059cbb60e01b81526001600160a01b039283166004820152602481018590529051919092169163a9059cbb9160448083019260209291908290030181600087803b15801561185b57600080fd5b505af115801561186f573d6000803e3d6000fd5b505050506040513d602081101561188557600080fd5b5050604080514281526020810183905281517f0d3bfb2b4f5da80070611197dca8a26201730969c74aa0d961803c510c8a82d3929181900390910190a15b60006118e06103e86111b660125486612ce290919063ffffffff16565b905080156119f35760065460085461190c916001600160a01b0391821691620100009091041683613092565b60065460085460408051635ff03ed360e11b81526001600160a01b0392831660048201526024810185905260606044820152602060648201527f54726561737572793a20536569676e696f7261676520416c6c6f636174696f6e60848201529051620100009093049091169163bfe07da69160a48082019260009290919082900301818387803b15801561199f57600080fd5b505af11580156119b3573d6000803e3d6000fd5b5050604080514281526020810185905281517f4caa64211297e9263667fef70732dc65ca7a8e8c60dc72539ed94518628212d09450908190039091019150a15b60006119ff83836131a5565b9050611a0b8482612e96565b93506000611a6c85611a67601154600960009054906101000a90046001600160a01b03166001600160a01b03166318160ddd6040518163ffffffff1660e01b815260040160206040518083038186803b1580156116fd57600080fd5b612e80565b90508015611ac057601154611a8190826131a5565b601155604080514281526020810183905281517ff705142bf09f04297640495ddf7c59b7fd6f51894c5aea9602d631cf05f0efc2929181900390910190a15b6000611acc8683612e96565b90508015611b9257600b54600854611af1916001600160a01b03918216911683613092565b600b54604080516397ffe1d760e01b81526004810184905290516001600160a01b03909216916397ffe1d79160248082019260009290919082900301818387803b158015611b3e57600080fd5b505af1158015611b52573d6000803e3d6000fd5b5050604080514281526020810185905281517f03ca7276ab7799bf73fb79d27ff0610cd7049574f2508ef8445162833d439aea9450908190039091019150a15b5050505050505050505b600554611baa9060016131a5565b600555436000908152602081815260408083203284529091528082208054600160ff1991821681179092553384529190922080549091169091179055565b600b546001600160a01b031681565b6009546001600160a01b031681565b600c546001600160a01b031681565b611c1d612ff1565b6001546001600160a01b03908116911614611c7f576040805162461bcd60e51b815260206004820181905260248201527f4f776e61626c653a2063616c6c6572206973206e6f7420746865206f776e6572604482015290519081900360640190fd5b6001546040516000916001600160a01b0316907f8be0079c531659141344cd1fd0a4f28419497f9722a3daafe3b4186f6b6457e0908390a3600180546001600160a01b0319169055565b6008546040805163570ca73560e01b8152905130926001600160a01b03169163570ca735916004808301926020929190829003018186803b158015611d0d57600080fd5b505afa158015611d21573d6000803e3d6000fd5b505050506040513d6020811015611d3757600080fd5b50516001600160a01b0316148015611dc557506009546040805163570ca73560e01b8152905130926001600160a01b03169163570ca735916004808301926020929190829003018186803b158015611d8e57600080fd5b505afa158015611da2573d6000803e3d6000fd5b505050506040513d6020811015611db857600080fd5b50516001600160a01b0316145b8015611e475750600a546040805163570ca73560e01b8152905130926001600160a01b03169163570ca735916004808301926020929190829003018186803b158015611e1057600080fd5b505afa158015611e24573d6000803e3d6000fd5b505050506040513d6020811015611e3a57600080fd5b50516001600160a01b0316145b8015611ec95750600b546040805163570ca73560e01b8152905130926001600160a01b03169163570ca735916004808301926020929190829003018186803b158015611e9257600080fd5b505afa158015611ea6573d6000803e3d6000fd5b505050506040513d6020811015611ebc57600080fd5b50516001600160a01b0316145b611f08576040805162461bcd60e51b815260206004820152601e6024820152600080516020613666833981519152604482015290519081900360640190fd5b600654610100900460ff1615611f5d576040805162461bcd60e51b8152602060048201526015602482015274151c99585cdd5c9e4e881a5b9a5d1a585b1a5e9959605a1b604482015290519081900360640190fd5b600854604080516370a0823160e01b815230600482015290516001600160a01b03909216916342966c689183916370a0823191602480820192602092909190829003018186803b158015611fb057600080fd5b505afa158015611fc4573d6000803e3d6000fd5b505050506040513d6020811015611fda57600080fd5b5051604080516001600160e01b031960e085901b168152600481019290925251602480830192600092919082900301818387803b15801561201a57600080fd5b505af115801561202e573d6000803e3d6000fd5b5050600854604080516370a0823160e01b815230600482015290516001600160a01b0390921693506370a082319250602480820192602092909190829003018186803b15801561207d57600080fd5b505afa158015612091573d6000803e3d6000fd5b505050506040513d60208110156120a757600080fd5b50516011556006805461ff00191661010017905560408051438152905133917f25ff68dd81b34665b5ba7e553ee5511bf6812e12adb4a7e2c0d9e26b3099ce79919081900360200190a2565b6103e881565b6001546001600160a01b031690565b6002546001600160a01b031633146121515760405162461bcd60e51b81526004018080602001828103825260248152602001806136b66024913960400191505060405180910390fd5b601281905560408051828152905133917f25ba333c9a98f8f18bb40ff507a4a1fb423614f442759c754d038a9de3f81cf3919081900360200190a250565b6008546001600160a01b031681565b600a546001600160a01b031681565b600e5481565b6002546001600160a01b031633146121fc5760405162461bcd60e51b81526004018080602001828103825260248152602001806136b66024913960400191505060405180910390fd5b600780546001600160a01b0383166001600160a01b03199091168117909155604080519182525133917ff87e12ba363db684b1b69a530d850a8a3f416932cd031e008ef71e42a1d88450919081900360200190a250565b6305f5e10081565b6006546201000090046001600160a01b031681565b600d54600090612288906001600160a01b0316612dc4565b905090565b60055490565b600c54600090612288906001600160a01b0316612dc4565b60125481565b60006122886122cd600354600554612ce290919063ffffffff16565b600454906131a5565b60045490565b6002546001600160a01b031633146123255760405162461bcd60e51b81526004018080602001828103825260248152602001806136b66024913960400191505060405180910390fd5b6008546040805163570ca73560e01b8152905130926001600160a01b03169163570ca735916004808301926020929190829003018186803b15801561236957600080fd5b505afa15801561237d573d6000803e3d6000fd5b505050506040513d602081101561239357600080fd5b50516001600160a01b031614801561242157506009546040805163570ca73560e01b8152905130926001600160a01b03169163570ca735916004808301926020929190829003018186803b1580156123ea57600080fd5b505afa1580156123fe573d6000803e3d6000fd5b505050506040513d602081101561241457600080fd5b50516001600160a01b0316145b80156124a35750600a546040805163570ca73560e01b8152905130926001600160a01b03169163570ca735916004808301926020929190829003018186803b15801561246c57600080fd5b505afa158015612480573d6000803e3d6000fd5b505050506040513d602081101561249657600080fd5b50516001600160a01b0316145b80156125255750600b546040805163570ca73560e01b8152905130926001600160a01b03169163570ca735916004808301926020929190829003018186803b1580156124ee57600080fd5b505afa158015612502573d6000803e3d6000fd5b505050506040513d602081101561251857600080fd5b50516001600160a01b0316145b612564576040805162461bcd60e51b815260206004820152601e6024820152600080516020613666833981519152604482015290519081900360640190fd5b60065460ff16156125b1576040805162461bcd60e51b8152602060048201526012602482015271151c99585cdd5c9e4e881b5a59dc985d195960721b604482015290519081900360640190fd5b600854604080516329605e7760e01b81526001600160a01b038481166004830152915191909216916329605e7791602480830192600092919082900301818387803b1580156125ff57600080fd5b505af1158015612613573d6000803e3d6000fd5b50506008546040805163f2fde38b60e01b81526001600160a01b038681166004830152915191909216935063f2fde38b9250602480830192600092919082900301818387803b15801561266557600080fd5b505af1158015612679573d6000803e3d6000fd5b5050600854604080516370a0823160e01b815230600482015290516001600160a01b03909216935063a9059cbb9250849184916370a08231916024808301926020929190829003018186803b1580156126d157600080fd5b505afa1580156126e5573d6000803e3d6000fd5b505050506040513d60208110156126fb57600080fd5b5051604080516001600160e01b031960e086901b1681526001600160a01b03909316600484015260248301919091525160448083019260209291908290030181600087803b15801561274c57600080fd5b505af1158015612760573d6000803e3d6000fd5b505050506040513d602081101561277657600080fd5b5050600954604080516329605e7760e01b81526001600160a01b038481166004830152915191909216916329605e7791602480830192600092919082900301818387803b1580156127c657600080fd5b505af11580156127da573d6000803e3d6000fd5b50506009546040805163f2fde38b60e01b81526001600160a01b038681166004830152915191909216935063f2fde38b9250602480830192600092919082900301818387803b15801561282c57600080fd5b505af1158015612840573d6000803e3d6000fd5b5050600954604080516370a0823160e01b815230600482015290516001600160a01b03909216935063a9059cbb9250849184916370a08231916024808301926020929190829003018186803b15801561289857600080fd5b505afa1580156128ac573d6000803e3d6000fd5b505050506040513d60208110156128c257600080fd5b5051604080516001600160e01b031960e086901b1681526001600160a01b03909316600484015260248301919091525160448083019260209291908290030181600087803b15801561291357600080fd5b505af1158015612927573d6000803e3d6000fd5b505050506040513d602081101561293d57600080fd5b5050600a54604080516329605e7760e01b81526001600160a01b038481166004830152915191909216916329605e7791602480830192600092919082900301818387803b15801561298d57600080fd5b505af11580156129a1573d6000803e3d6000fd5b5050600a546040805163f2fde38b60e01b81526001600160a01b038681166004830152915191909216935063f2fde38b9250602480830192600092919082900301818387803b1580156129f357600080fd5b505af1158015612a07573d6000803e3d6000fd5b5050600a54604080516370a0823160e01b815230600482015290516001600160a01b03909216935063a9059cbb9250849184916370a08231916024808301926020929190829003018186803b158015612a5f57600080fd5b505afa158015612a73573d6000803e3d6000fd5b505050506040513d6020811015612a8957600080fd5b5051604080516001600160e01b031960e086901b1681526001600160a01b03909316600484015260248301919091525160448083019260209291908290030181600087803b158015612ada57600080fd5b505af1158015612aee573d6000803e3d6000fd5b505050506040513d6020811015612b0457600080fd5b50506006805460ff191660011790556040516001600160a01b038216907f0caca70b66aed56b0630989a049110023c5a3f37e0ea4b6ce96fc747663f3ebc90600090a250565b60105481565b6002546001600160a01b03163314612b995760405162461bcd60e51b81526004018080602001828103825260248152602001806136b66024913960400191505060405180910390fd5b601381905560408051828152905133917f1bea9736c359e1c629b577d89033b7e78cf7e7d211ab808a0ccd1213e198fc9f919081900360200190a250565b612bdf612ff1565b6001546001600160a01b03908116911614612c41576040805162461bcd60e51b815260206004820181905260248201527f4f776e61626c653a2063616c6c6572206973206e6f7420746865206f776e6572604482015290519081900360640190fd5b6001600160a01b038116612c865760405162461bcd60e51b81526004018080602001828103825260268152602001806135376026913960400191505060405180910390fd5b6001546040516001600160a01b038084169216907f8be0079c531659141344cd1fd0a4f28419497f9722a3daafe3b4186f6b6457e090600090a3600180546001600160a01b0319166001600160a01b0392909216919091179055565b600082612cf157506000612d3e565b82820282848281612cfe57fe5b0414612d3b5760405162461bcd60e51b815260040180806020018281038252602181526020018061360f6021913960400191505060405180910390fd5b90505b92915050565b6000612d3b83836040518060400160405280601a81526020017f536166654d6174683a206469766973696f6e206279207a65726f0000000000008152506131ff565b4360009081526020818152604080832032845290915290205460ff1690565b4360009081526020818152604080832033845290915290205460ff1690565b60085460408051633ddac95360e01b81526001600160a01b039283166004820152670de0b6b3a764000060248201529051600092841691633ddac953916044808301926020929190829003018186803b158015612e2057600080fd5b505afa925050508015612e4557506040513d6020811015612e4057600080fd5b505160015b612d3e5760405162461bcd60e51b81526004018080602001828103825260368152602001806136306036913960400191505060405180910390fd5b6000818310612e8f5781612d3b565b5090919050565b6000612d3b83836040518060400160405280601e81526020017f536166654d6174683a207375627472616374696f6e206f766572666c6f7700008152506132a1565b604080516001600160a01b038416602482015260448082018490528251808303909101815260649091019091526020810180516001600160e01b031663a9059cbb60e01b179052612f2a9084906132fb565b505050565b600c60009054906101000a90046001600160a01b03166001600160a01b031663a2e620456040518163ffffffff1660e01b8152600401600060405180830381600087803b158015612f7f57600080fd5b505af1925050508015612f90575060015b50600d60009054906101000a90046001600160a01b03166001600160a01b031663a2e620456040518163ffffffff1660e01b8152600401600060405180830381600087803b158015612fe157600080fd5b505af1925050508015610c8e5750565b3390565b6001600160a01b03811661303a5760405162461bcd60e51b815260040180806020018281038252602d8152602001806135bd602d913960400191505060405180910390fd5b6040516001600160a01b038216906000907f74da04524d50c64947f5dd5381ef1a4dca5cba8ed1d816243f9e48aa0b5617ed908290a3600280546001600160a01b0319166001600160a01b0392909216919091179055565b801580613118575060408051636eb1769f60e11b81523060048201526001600160a01b03848116602483015291519185169163dd62ed3e91604480820192602092909190829003018186803b1580156130ea57600080fd5b505afa1580156130fe573d6000803e3d6000fd5b505050506040513d602081101561311457600080fd5b5051155b6131535760405162461bcd60e51b815260040180806020018281038252603681526020018061372a6036913960400191505060405180910390fd5b604080516001600160a01b038416602482015260448082018490528251808303909101815260649091019091526020810180516001600160e01b031663095ea7b360e01b179052612f2a9084906132fb565b600082820183811015612d3b576040805162461bcd60e51b815260206004820152601b60248201527f536166654d6174683a206164646974696f6e206f766572666c6f770000000000604482015290519081900360640190fd5b6000818361328b5760405162461bcd60e51b81526004018080602001828103825283818151815260200191508051906020019080838360005b83811015613250578181015183820152602001613238565b50505050905090810190601f16801561327d5780820380516001836020036101000a031916815260200191505b509250505060405180910390fd5b50600083858161329757fe5b0495945050505050565b600081848411156132f35760405162461bcd60e51b8152602060048201818152835160248401528351909283926044909101919085019080838360008315613250578181015183820152602001613238565b505050900390565b6060613350826040518060400160405280602081526020017f5361666545524332303a206c6f772d6c6576656c2063616c6c206661696c6564815250856001600160a01b03166133ac9092919063ffffffff16565b805190915015612f2a5780806020019051602081101561336f57600080fd5b5051612f2a5760405162461bcd60e51b815260040180806020018281038252602a8152602001806136da602a913960400191505060405180910390fd5b60606133bb84846000856133c3565b949350505050565b60606133ce85613530565b61341f576040805162461bcd60e51b815260206004820152601d60248201527f416464726573733a2063616c6c20746f206e6f6e2d636f6e7472616374000000604482015290519081900360640190fd5b60006060866001600160a01b031685876040518082805190602001908083835b6020831061345e5780518252601f19909201916020918201910161343f565b6001836020036101000a03801982511681845116808217855250505050505090500191505060006040518083038185875af1925050503d80600081146134c0576040519150601f19603f3d011682016040523d82523d6000602084013e6134c5565b606091505b509150915081156134d95791506133bb9050565b8051156134e95780518082602001fd5b60405162461bcd60e51b8152602060048201818152865160248401528651879391928392604401919085019080838360008315613250578181015183820152602001613238565b3b15159056fe4f776e61626c653a206e6577206f776e657220697320746865207a65726f206164647265737354726561737572793a2063616e6e6f742072656465656d20626f6e64732077697468207a65726f20616d6f756e7454726561737572793a20636173685072696365206e6f7420656c696769626c6520666f7220626f6e642070757263686173656f70657261746f723a207a65726f206164647265737320676976656e20666f72206e6577206f70657261746f7254726561737572793a20747265617375727920686173206e6f206d6f726520627564676574536166654d6174683a206d756c7469706c69636174696f6e206f766572666c6f7754726561737572793a206661696c656420746f20636f6e73756c7420636173682070726963652066726f6d20746865206f7261636c6554726561737572793a206e656564206d6f7265207065726d697373696f6e000054726561737572793a2063616e6e6f7420707572636861736520626f6e64732077697468207a65726f20616d6f756e746f70657261746f723a2063616c6c6572206973206e6f7420746865206f70657261746f725361666545524332303a204552433230206f7065726174696f6e20646964206e6f742073756363656564436f6e747261637447756172643a206f6e6520626c6f636b2c206f6e652066756e6374696f6e5361666545524332303a20617070726f76652066726f6d206e6f6e2d7a65726f20746f206e6f6e2d7a65726f20616c6c6f77616e6365a264697066735822122023803dacd0794e1103495e68e942380c4294c92e631271e69154b7aa9c659f1a64736f6c634300060c0033536166654d6174683a206d756c7469706c69636174696f6e206f766572666c6f77",
  "linkReferences": {},
  "deployedLinkReferences": {}
}