{
  "_format": "hh-sol-artifact-1",
  "contractName": "Treasury",
  "sourceName": "contracts/Treasury.sol",
  "abi": [
    {
      "inputs": [
        {
          "internalType": "address",
          "name": "_cash",
          "type": "address"
        },
        {
          "internalType": "address",
          "name": "_bond",
          "type": "address"
        },
        {
          "internalType": "address",
          "name": "_share",
          "type": "address"
        },
        {
          "internalType": "address",
          "name": "_bondOracle",
          "type": "address"
        },
        {
          "internalType": "address",
          "name": "_seigniorageOracle",
          "type": "address"
        },
        {
          "internalType": "address",
          "name": "_boardroom",
          "type": "address"
        },
        {
          "internalType": "address",
          "name": "_fund",
          "type": "address"
        },
        {
          "internalType": "address",
          "name": "_devFund",
          "type": "address"
        },
        {
          "internalType": "address",
          "name": "_curve",
          "type": "address"
        },
        {
          "internalType": "uint256",
          "name": "_startTime",
          "type": "uint256"
        }
      ],
      "stateMutability": "nonpayable",
      "type": "constructor"
    },
    {
      "anonymous": false,
      "inputs": [
        {
          "indexed": false,
          "internalType": "uint256",
          "name": "timestamp",
          "type": "uint256"
        },
        {
          "indexed": false,
          "internalType": "uint256",
          "name": "seigniorage",
          "type": "uint256"
        }
      ],
      "name": "BoardroomFunded",
      "type": "event"
    },
    {
      "anonymous": false,
      "inputs": [
        {
          "indexed": true,
          "internalType": "address",
          "name": "operator",
          "type": "address"
        },
        {
          "indexed": false,
          "internalType": "address",
          "name": "oldOracle",
          "type": "address"
        },
        {
          "indexed": false,
          "internalType": "address",
          "name": "newOracle",
          "type": "address"
        }
      ],
      "name": "BondOracleChanged",
      "type": "event"
    },
    {
      "anonymous": false,
      "inputs": [
        {
          "indexed": true,
          "internalType": "address",
          "name": "from",
          "type": "address"
        },
        {
          "indexed": false,
          "internalType": "uint256",
          "name": "amount",
          "type": "uint256"
        }
      ],
      "name": "BoughtBonds",
      "type": "event"
    },
    {
      "anonymous": false,
      "inputs": [
        {
          "indexed": true,
          "internalType": "address",
          "name": "operator",
          "type": "address"
        },
        {
          "indexed": false,
          "internalType": "address",
          "name": "oldCurve",
          "type": "address"
        },
        {
          "indexed": false,
          "internalType": "address",
          "name": "newCurve",
          "type": "address"
        }
      ],
      "name": "CeilingCurveChanged",
      "type": "event"
    },
    {
      "anonymous": false,
      "inputs": [
        {
          "indexed": true,
          "internalType": "address",
          "name": "operator",
          "type": "address"
        },
        {
          "indexed": false,
          "internalType": "address",
          "name": "oldFund",
          "type": "address"
        },
        {
          "indexed": false,
          "internalType": "address",
          "name": "newFund",
          "type": "address"
        }
      ],
      "name": "ContributionPoolChanged",
      "type": "event"
    },
    {
      "anonymous": false,
      "inputs": [
        {
          "indexed": false,
          "internalType": "uint256",
          "name": "timestamp",
          "type": "uint256"
        },
        {
          "indexed": false,
          "internalType": "uint256",
          "name": "seigniorage",
          "type": "uint256"
        }
      ],
      "name": "ContributionPoolFunded",
      "type": "event"
    },
    {
      "anonymous": false,
      "inputs": [
        {
          "indexed": true,
          "internalType": "address",
          "name": "operator",
          "type": "address"
        },
        {
          "indexed": false,
          "internalType": "uint256",
          "name": "oldRate",
          "type": "uint256"
        },
        {
          "indexed": false,
          "internalType": "uint256",
          "name": "newRate",
          "type": "uint256"
        }
      ],
      "name": "ContributionPoolRateChanged",
      "type": "event"
    },
    {
      "anonymous": false,
      "inputs": [
        {
          "indexed": true,
          "internalType": "address",
          "name": "operator",
          "type": "address"
        },
        {
          "indexed": false,
          "internalType": "address",
          "name": "newDevFund",
          "type": "address"
        }
      ],
      "name": "DevFundChanged",
      "type": "event"
    },
    {
      "anonymous": false,
      "inputs": [
        {
          "indexed": true,
          "internalType": "address",
          "name": "operator",
          "type": "address"
        },
        {
          "indexed": false,
          "internalType": "uint256",
          "name": "newRate",
          "type": "uint256"
        }
      ],
      "name": "DevFundRateChanged",
      "type": "event"
    },
    {
      "anonymous": false,
      "inputs": [
        {
          "indexed": false,
          "internalType": "uint256",
          "name": "timestamp",
          "type": "uint256"
        },
        {
          "indexed": false,
          "internalType": "uint256",
          "name": "seigniorage",
          "type": "uint256"
        }
      ],
      "name": "DevPoolFunded",
      "type": "event"
    },
    {
      "anonymous": false,
      "inputs": [
        {
          "indexed": true,
          "internalType": "address",
          "name": "executor",
          "type": "address"
        },
        {
          "indexed": false,
          "internalType": "uint256",
          "name": "at",
          "type": "uint256"
        }
      ],
      "name": "Initialized",
      "type": "event"
    },
    {
      "anonymous": false,
      "inputs": [
        {
          "indexed": true,
          "internalType": "address",
          "name": "target",
          "type": "address"
        }
      ],
      "name": "Migration",
      "type": "event"
    },
    {
      "anonymous": false,
      "inputs": [
        {
          "indexed": true,
          "internalType": "address",
          "name": "previousOperator",
          "type": "address"
        },
        {
          "indexed": true,
          "internalType": "address",
          "name": "newOperator",
          "type": "address"
        }
      ],
      "name": "OperatorTransferred",
      "type": "event"
    },
    {
      "anonymous": false,
      "inputs": [
        {
          "indexed": true,
          "internalType": "address",
          "name": "previousOwner",
          "type": "address"
        },
        {
          "indexed": true,
          "internalType": "address",
          "name": "newOwner",
          "type": "address"
        }
      ],
      "name": "OwnershipTransferred",
      "type": "event"
    },
    {
      "anonymous": false,
      "inputs": [
        {
          "indexed": true,
          "internalType": "address",
          "name": "from",
          "type": "address"
        },
        {
          "indexed": false,
          "internalType": "uint256",
          "name": "amount",
          "type": "uint256"
        }
      ],
      "name": "RedeemedBonds",
      "type": "event"
    },
    {
      "anonymous": false,
      "inputs": [
        {
          "indexed": true,
          "internalType": "address",
          "name": "operator",
          "type": "address"
        },
        {
          "indexed": false,
          "internalType": "address",
          "name": "oldOracle",
          "type": "address"
        },
        {
          "indexed": false,
          "internalType": "address",
          "name": "newOracle",
          "type": "address"
        }
      ],
      "name": "SeigniorageOracleChanged",
      "type": "event"
    },
    {
      "anonymous": false,
      "inputs": [
        {
          "indexed": false,
          "internalType": "uint256",
          "name": "timestamp",
          "type": "uint256"
        },
        {
          "indexed": false,
          "internalType": "uint256",
          "name": "seigniorage",
          "type": "uint256"
        }
      ],
      "name": "TreasuryFunded",
      "type": "event"
    },
    {
      "inputs": [],
      "name": "FUND_RATE_DENOMINATOR",
      "outputs": [
        {
          "internalType": "uint256",
          "name": "",
          "type": "uint256"
        }
      ],
      "stateMutability": "view",
      "type": "function"
    },
    {
      "inputs": [],
      "name": "WBTC_PRICE_PRECISION",
      "outputs": [
        {
          "internalType": "uint256",
          "name": "",
          "type": "uint256"
        }
      ],
      "stateMutability": "view",
      "type": "function"
    },
    {
      "inputs": [],
      "name": "accumulatedSeigniorage",
      "outputs": [
        {
          "internalType": "uint256",
          "name": "",
          "type": "uint256"
        }
      ],
      "stateMutability": "view",
      "type": "function"
    },
    {
      "inputs": [],
      "name": "allocateSeigniorage",
      "outputs": [],
      "stateMutability": "nonpayable",
      "type": "function"
    },
    {
      "inputs": [],
      "name": "boardroom",
      "outputs": [
        {
          "internalType": "address",
          "name": "",
          "type": "address"
        }
      ],
      "stateMutability": "view",
      "type": "function"
    },
    {
      "inputs": [],
      "name": "bond",
      "outputs": [
        {
          "internalType": "address",
          "name": "",
          "type": "address"
        }
      ],
      "stateMutability": "view",
      "type": "function"
    },
    {
      "inputs": [],
      "name": "bondCap",
      "outputs": [
        {
          "internalType": "uint256",
          "name": "",
          "type": "uint256"
        }
      ],
      "stateMutability": "view",
      "type": "function"
    },
    {
      "inputs": [],
      "name": "bondOracle",
      "outputs": [
        {
          "internalType": "address",
          "name": "",
          "type": "address"
        }
      ],
      "stateMutability": "view",
      "type": "function"
    },
    {
      "inputs": [
        {
          "internalType": "uint256",
          "name": "amount",
          "type": "uint256"
        },
        {
          "internalType": "uint256",
          "name": "targetPrice",
          "type": "uint256"
        }
      ],
      "name": "buyBonds",
      "outputs": [],
      "stateMutability": "nonpayable",
      "type": "function"
    },
    {
      "inputs": [],
      "name": "callable",
      "outputs": [
        {
          "internalType": "bool",
          "name": "",
          "type": "bool"
        }
      ],
      "stateMutability": "view",
      "type": "function"
    },
    {
      "inputs": [],
      "name": "cash",
      "outputs": [
        {
          "internalType": "address",
          "name": "",
          "type": "address"
        }
      ],
      "stateMutability": "view",
      "type": "function"
    },
    {
      "inputs": [],
      "name": "cashPriceOne",
      "outputs": [
        {
          "internalType": "uint256",
          "name": "",
          "type": "uint256"
        }
      ],
      "stateMutability": "view",
      "type": "function"
    },
    {
      "inputs": [],
      "name": "circulatingSupply",
      "outputs": [
        {
          "internalType": "uint256",
          "name": "",
          "type": "uint256"
        }
      ],
      "stateMutability": "view",
      "type": "function"
    },
    {
      "inputs": [],
      "name": "curve",
      "outputs": [
        {
          "internalType": "address",
          "name": "",
          "type": "address"
        }
      ],
      "stateMutability": "view",
      "type": "function"
    },
    {
      "inputs": [],
      "name": "devFund",
      "outputs": [
        {
          "internalType": "address",
          "name": "",
          "type": "address"
        }
      ],
      "stateMutability": "view",
      "type": "function"
    },
    {
      "inputs": [],
      "name": "devFundAllocationRate",
      "outputs": [
        {
          "internalType": "uint256",
          "name": "",
          "type": "uint256"
        }
      ],
      "stateMutability": "view",
      "type": "function"
    },
    {
      "inputs": [],
      "name": "fund",
      "outputs": [
        {
          "internalType": "address",
          "name": "",
          "type": "address"
        }
      ],
      "stateMutability": "view",
      "type": "function"
    },
    {
      "inputs": [],
      "name": "fundAllocationRate",
      "outputs": [
        {
          "internalType": "uint256",
          "name": "",
          "type": "uint256"
        }
      ],
      "stateMutability": "view",
      "type": "function"
    },
    {
      "inputs": [],
      "name": "getBondOraclePrice",
      "outputs": [
        {
          "internalType": "uint256",
          "name": "",
          "type": "uint256"
        }
      ],
      "stateMutability": "view",
      "type": "function"
    },
    {
      "inputs": [],
      "name": "getCeilingPrice",
      "outputs": [
        {
          "internalType": "uint256",
          "name": "",
          "type": "uint256"
        }
      ],
      "stateMutability": "view",
      "type": "function"
    },
    {
      "inputs": [],
      "name": "getCurrentEpoch",
      "outputs": [
        {
          "internalType": "uint256",
          "name": "",
          "type": "uint256"
        }
      ],
      "stateMutability": "view",
      "type": "function"
    },
    {
      "inputs": [],
      "name": "getLastEpoch",
      "outputs": [
        {
          "internalType": "uint256",
          "name": "",
          "type": "uint256"
        }
      ],
      "stateMutability": "view",
      "type": "function"
    },
    {
      "inputs": [],
      "name": "getNextEpoch",
      "outputs": [
        {
          "internalType": "uint256",
          "name": "",
          "type": "uint256"
        }
      ],
      "stateMutability": "view",
      "type": "function"
    },
    {
      "inputs": [],
      "name": "getPeriod",
      "outputs": [
        {
          "internalType": "uint256",
          "name": "",
          "type": "uint256"
        }
      ],
      "stateMutability": "view",
      "type": "function"
    },
    {
      "inputs": [],
      "name": "getReserve",
      "outputs": [
        {
          "internalType": "uint256",
          "name": "",
          "type": "uint256"
        }
      ],
      "stateMutability": "view",
      "type": "function"
    },
    {
      "inputs": [],
      "name": "getSeigniorageOraclePrice",
      "outputs": [
        {
          "internalType": "uint256",
          "name": "",
          "type": "uint256"
        }
      ],
      "stateMutability": "view",
      "type": "function"
    },
    {
      "inputs": [],
      "name": "getStartTime",
      "outputs": [
        {
          "internalType": "uint256",
          "name": "",
          "type": "uint256"
        }
      ],
      "stateMutability": "view",
      "type": "function"
    },
    {
      "inputs": [],
      "name": "initialize",
      "outputs": [],
      "stateMutability": "nonpayable",
      "type": "function"
    },
    {
      "inputs": [],
      "name": "initialized",
      "outputs": [
        {
          "internalType": "bool",
          "name": "",
          "type": "bool"
        }
      ],
      "stateMutability": "view",
      "type": "function"
    },
    {
      "inputs": [],
      "name": "isOperator",
      "outputs": [
        {
          "internalType": "bool",
          "name": "",
          "type": "bool"
        }
      ],
      "stateMutability": "view",
      "type": "function"
    },
    {
      "inputs": [],
      "name": "lastBondOracleEpoch",
      "outputs": [
        {
          "internalType": "uint256",
          "name": "",
          "type": "uint256"
        }
      ],
      "stateMutability": "view",
      "type": "function"
    },
    {
      "inputs": [
        {
          "internalType": "address",
          "name": "target",
          "type": "address"
        }
      ],
      "name": "migrate",
      "outputs": [],
      "stateMutability": "nonpayable",
      "type": "function"
    },
    {
      "inputs": [],
      "name": "migrated",
      "outputs": [
        {
          "internalType": "bool",
          "name": "",
          "type": "bool"
        }
      ],
      "stateMutability": "view",
      "type": "function"
    },
    {
      "inputs": [],
      "name": "nextEpochPoint",
      "outputs": [
        {
          "internalType": "uint256",
          "name": "",
          "type": "uint256"
        }
      ],
      "stateMutability": "view",
      "type": "function"
    },
    {
      "inputs": [],
      "name": "operator",
      "outputs": [
        {
          "internalType": "address",
          "name": "",
          "type": "address"
        }
      ],
      "stateMutability": "view",
      "type": "function"
    },
    {
      "inputs": [],
      "name": "owner",
      "outputs": [
        {
          "internalType": "address",
          "name": "",
          "type": "address"
        }
      ],
      "stateMutability": "view",
      "type": "function"
    },
    {
      "inputs": [
        {
          "internalType": "uint256",
          "name": "amount",
          "type": "uint256"
        }
      ],
      "name": "redeemBonds",
      "outputs": [],
      "stateMutability": "nonpayable",
      "type": "function"
    },
    {
      "inputs": [],
      "name": "renounceOwnership",
      "outputs": [],
      "stateMutability": "nonpayable",
      "type": "function"
    },
    {
      "inputs": [],
      "name": "seigniorageOracle",
      "outputs": [
        {
          "internalType": "address",
          "name": "",
          "type": "address"
        }
      ],
      "stateMutability": "view",
      "type": "function"
    },
    {
      "inputs": [
        {
          "internalType": "address",
          "name": "newOracle",
          "type": "address"
        }
      ],
      "name": "setBondOracle",
      "outputs": [],
      "stateMutability": "nonpayable",
      "type": "function"
    },
    {
      "inputs": [
        {
          "internalType": "address",
          "name": "newCurve",
          "type": "address"
        }
      ],
      "name": "setCeilingCurve",
      "outputs": [],
      "stateMutability": "nonpayable",
      "type": "function"
    },
    {
      "inputs": [
        {
          "internalType": "uint256",
          "name": "rate",
          "type": "uint256"
        }
      ],
      "name": "setDevAllocationRate",
      "outputs": [],
      "stateMutability": "nonpayable",
      "type": "function"
    },
    {
      "inputs": [
        {
          "internalType": "address",
          "name": "newDevFund",
          "type": "address"
        }
      ],
      "name": "setDevFund",
      "outputs": [],
      "stateMutability": "nonpayable",
      "type": "function"
    },
    {
      "inputs": [
        {
          "internalType": "address",
          "name": "newFund",
          "type": "address"
        }
      ],
      "name": "setFund",
      "outputs": [],
      "stateMutability": "nonpayable",
      "type": "function"
    },
    {
      "inputs": [
        {
          "internalType": "uint256",
          "name": "newRate",
          "type": "uint256"
        }
      ],
      "name": "setFundAllocationRate",
      "outputs": [],
      "stateMutability": "nonpayable",
      "type": "function"
    },
    {
      "inputs": [
        {
          "internalType": "uint256",
          "name": "_period",
          "type": "uint256"
        }
      ],
      "name": "setPeriod",
      "outputs": [],
      "stateMutability": "nonpayable",
      "type": "function"
    },
    {
      "inputs": [
        {
          "internalType": "address",
          "name": "newOracle",
          "type": "address"
        }
      ],
      "name": "setSeigniorageOracle",
      "outputs": [],
      "stateMutability": "nonpayable",
      "type": "function"
    },
    {
      "inputs": [],
      "name": "share",
      "outputs": [
        {
          "internalType": "address",
          "name": "",
          "type": "address"
        }
      ],
      "stateMutability": "view",
      "type": "function"
    },
    {
      "inputs": [
        {
          "internalType": "address",
          "name": "newOperator_",
          "type": "address"
        }
      ],
      "name": "transferOperator",
      "outputs": [],
      "stateMutability": "nonpayable",
      "type": "function"
    },
    {
      "inputs": [
        {
          "internalType": "address",
          "name": "newOwner",
          "type": "address"
        }
      ],
      "name": "transferOwnership",
      "outputs": [],
      "stateMutability": "nonpayable",
      "type": "function"
    }
  ],
  "bytecode": "0x60806040526006805461ffff19169055600060108190556011819055601255600a60138190556014553480156200003557600080fd5b50604051620041be380380620041be83398181016040526101408110156200005c57600080fd5b508051602082015160408301516060840151608085015160a086015160c087015160e088015161010089015161012090990151979896979596949593949293919290916201518081600080620000b1620002aa565b600180546001600160a01b0319166001600160a01b038316908117909155604051919250906000907f8be0079c531659141344cd1fd0a4f28419497f9722a3daafe3b4186f6b6457e0908290a35062000109620002aa565b600280546001600160a01b0319166001600160a01b0392831617908190556040519116906000907f74da04524d50c64947f5dd5381ef1a4dca5cba8ed1d816243f9e48aa0b5617ed908290a3428211620001aa576040805162461bcd60e51b815260206004820152601960248201527f45706f63683a20696e76616c69642073746172742074696d6500000000000000604482015290519081900360640190fd5b60038390556004829055620001e7620001d08285620002ae602090811b620030e917901c565b6004546200031560201b6200314b1790919060201c565b6005555050600880546001600160a01b03199081166001600160a01b039d8e16179091556009805482169b8d169b909b17909a555050600a80548916978a1697909717909655600b8054881696891696909617909555600d8054871694881694909417909355600e8054861692871692909217909155600c805485169186169190911790556006805462010000600160b01b03191662010000928616929092029190911790556007805490921692169190911790556305f5e100600f5562000370565b3390565b600082620002bf575060006200030f565b82820282848281620002cd57fe5b04146200030c5760405162461bcd60e51b81526004018080602001828103825260218152602001806200419d6021913960400191505060405180910390fd5b90505b92915050565b6000828201838110156200030c576040805162461bcd60e51b815260206004820152601b60248201527f536166654d6174683a206164646974696f6e206f766572666c6f770000000000604482015290519081900360640190fd5b613e1d80620003806000396000f3fe608060405234801561001057600080fd5b50600436106102d65760003560e01c806384d2976d11610182578063b8e2cf8e116100e9578063c828371e116100a2578063e189ce141161007c578063e189ce14146105a6578063ee4b1b08146105c3578063efe97d05146105e0578063f2fde38b146105e8576102d6565b8063c828371e14610552578063ce5494bb1461055a578063e06e9c6514610580576102d6565b8063b8e2cf8e14610504578063b97dd9e21461050c578063c1a2977214610514578063c1aa39001461051c578063c4020ca214610524578063c5967c261461054a576102d6565b8063a871694f1161013b578063a871694f146104b6578063a8d5fd65146104be578063a9cfc46e146104c6578063ae4db919146104ce578063b51ef051146104f4578063b60d4288146104fc576102d6565b806384d2976d146104715780638da5cb5b146104795780639358928b1461048157806394ab01621461048957806395b1828a14610491578063961be391146104ae576102d6565b80634456eda2116102415780635e02c51e116101fa5780636d19921d116101d45780636d19921d14610451578063715018a6146104595780637165485d146104615780638129fc1c14610469576102d6565b80635e02c51e1461043957806364c9ec6f146104415780636a2ab60214610449576102d6565b80634456eda2146103ee5780634c359b49146103f657806354f04a11146103fe578063570ca7351461042157806359bf5d39146104295780635b75617914610431576102d6565b806327aef8221161029357806327aef822146103a057806329605e77146103a85780632c678c64146103ce578063398bac63146103d65780633a59c9a8146103de5780634390d2a8146103e6576102d6565b80630e21750f146102db5780630f3a9f6514610303578063132eeaa714610320578063158ef93e146103445780631ed1010a146103605780631ed2419514610386575b600080fd5b610301600480360360208110156102f157600080fd5b50356001600160a01b031661060e565b005b6103016004803603602081101561031957600080fd5b50356106c8565b610328610716565b604080516001600160a01b039092168252519081900360200190f35b61034c610725565b604080519115158252519081900360200190f35b6103016004803603602081101561037657600080fd5b50356001600160a01b0316610733565b61038e6107dc565b60408051918252519081900360200190f35b61038e6107e3565b610301600480360360208110156103be57600080fd5b50356001600160a01b03166107e9565b61034c61085f565b61038e610868565b61038e610892565b610328610898565b61034c6108a7565b61038e6108cd565b6103016004803603604081101561041457600080fd5b508035906020013561094e565b610328610f93565b61038e610fa2565b610301610fa8565b6103286118d8565b6103286118e7565b61034c6118f6565b61032861190f565b61030161191e565b6103286119d2565b6103016119e1565b61038e611d36565b610328611d3c565b61038e611d4b565b61038e611da1565b610301600480360360208110156104a757600080fd5b5035611da7565b610328611e36565b61038e611e45565b610328611e4b565b61038e611e5a565b610301600480360360208110156104e457600080fd5b50356001600160a01b0316611e60565b61038e611f00565b610328611f08565b61038e611f1d565b61038e611f35565b61038e611f55565b61038e611f6d565b6103016004803603602081101561053a57600080fd5b50356001600160a01b0316611f73565b61038e61201e565b61038e61203a565b6103016004803603602081101561057057600080fd5b50356001600160a01b0316612040565b6103016004803603602081101561059657600080fd5b50356001600160a01b03166128ae565b610301600480360360208110156105bc57600080fd5b5035612959565b610301600480360360208110156105d957600080fd5b5035612f27565b61038e612fae565b610301600480360360208110156105fe57600080fd5b50356001600160a01b0316612fde565b6002546001600160a01b031633146106575760405162461bcd60e51b8152600401808060200182810382526024815260200180613d3e6024913960400191505060405180910390fd5b600680546001600160a01b038381166201000081810262010000600160b01b031985161790945560408051949093049190911680845260208401919091528151909233927fa10cd50e390804229d0e9687c2fd0f4e5257229e7e59316ad26097b92fcf531b92918290030190a25050565b6002546001600160a01b031633146107115760405162461bcd60e51b8152600401808060200182810382526024815260200180613d3e6024913960400191505060405180910390fd5b600355565b600e546001600160a01b031681565b600654610100900460ff1681565b6002546001600160a01b0316331461077c5760405162461bcd60e51b8152600401808060200182810382526024815260200180613d3e6024913960400191505060405180910390fd5b600b80546001600160a01b0319166001600160a01b0383169081179091556040805182815260208101929092528051839233927f0c3b8dd6dcdb1124b1462422d9266e323787d01a814009a5d35cf16741b87bd692918290030190a25050565b6003545b90565b60125481565b6107f16131a5565b6001546001600160a01b03908116911614610853576040805162461bcd60e51b815260206004820181905260248201527f4f776e61626c653a2063616c6c6572206973206e6f7420746865206f776e6572604482015290519081900360640190fd5b61085c816131a9565b50565b60065460ff1681565b600061088d60035461088760045460055461324690919063ffffffff16565b90613288565b905090565b60145481565b6007546001600160a01b031681565b6002546000906001600160a01b03166108be6131a5565b6001600160a01b031614905090565b600b546000906001600160a01b031663292f1f1c6108e9611d4b565b6040518263ffffffff1660e01b81526004018082815260200191505060206040518083038186803b15801561091d57600080fd5b505afa158015610931573d6000803e3d6000fd5b505050506040513d602081101561094757600080fd5b5051905090565b6109566132ca565b156109925760405162461bcd60e51b8152600401808060200182810382526026815260200180613d8c6026913960400191505060405180910390fd5b61099a6132e9565b156109d65760405162461bcd60e51b8152600401808060200182810382526026815260200180613d8c6026913960400191505060405180910390fd5b60065460ff1615610a23576040805162461bcd60e51b8152602060048201526012602482015271151c99585cdd5c9e4e881b5a59dc985d195960721b604482015290519081900360640190fd5b600454421015610a73576040805162461bcd60e51b8152602060048201526016602482015275115c1bd8da0e881b9bdd081cdd185c9d1959081e595d60521b604482015290519081900360640190fd5b6008546040805163570ca73560e01b8152905130926001600160a01b03169163570ca735916004808301926020929190829003018186803b158015610ab757600080fd5b505afa158015610acb573d6000803e3d6000fd5b505050506040513d6020811015610ae157600080fd5b50516001600160a01b0316148015610b6f57506009546040805163570ca73560e01b8152905130926001600160a01b03169163570ca735916004808301926020929190829003018186803b158015610b3857600080fd5b505afa158015610b4c573d6000803e3d6000fd5b505050506040513d6020811015610b6257600080fd5b50516001600160a01b0316145b8015610bf15750600a546040805163570ca73560e01b8152905130926001600160a01b03169163570ca735916004808301926020929190829003018186803b158015610bba57600080fd5b505afa158015610bce573d6000803e3d6000fd5b505050506040513d6020811015610be457600080fd5b50516001600160a01b0316145b8015610c735750600c546040805163570ca73560e01b8152905130926001600160a01b03169163570ca735916004808301926020929190829003018186803b158015610c3c57600080fd5b505afa158015610c50573d6000803e3d6000fd5b505050506040513d6020811015610c6657600080fd5b50516001600160a01b0316145b610cb2576040805162461bcd60e51b815260206004820152601e6024820152600080516020613cee833981519152604482015290519081900360640190fd5b60008211610cf15760405162461bcd60e51b8152600401808060200182810382526030815260200180613d0e6030913960400191505060405180910390fd5b600d54600090610d09906001600160a01b0316613308565b905081811115610d60576040805162461bcd60e51b815260206004820152601a60248201527f54726561737572793a2063617368207072696365206d6f766564000000000000604482015290519081900360640190fd5b600f548110610da05760405162461bcd60e51b8152600401808060200182810382526032815260200180613bf26032913960400191505060405180910390fd5b610da9816133c4565b610dd383610dce670de0b6b3a7640000610887856011546130e990919063ffffffff16565b613514565b925060008311610e145760405162461bcd60e51b8152600401808060200182810382526021815260200180613c246021913960400191505060405180910390fd5b6008546040805163079cc67960e41b81523360048201526024810186905290516001600160a01b03909216916379cc67909160448082019260009290919082900301818387803b158015610e6757600080fd5b505af1158015610e7b573d6000803e3d6000fd5b50506009546001600160a01b031691506340c10f19905033610ea584610887886305f5e1006130e9565b6040518363ffffffff1660e01b815260040180836001600160a01b0316815260200182815260200192505050602060405180830381600087803b158015610eeb57600080fd5b505af1158015610eff573d6000803e3d6000fd5b505050506040513d6020811015610f1557600080fd5b505060408051848152905133917fdbf5270c3cf4729fec4fdac76fda864aa4f3d14d657ad21772ac28f627141ed9919081900360200190a250610f5661352a565b5050436000908152602081815260408083203284529091528082208054600160ff1991821681179092553384529190922080549091169091179055565b6002546001600160a01b031690565b60125490565b610fb06132ca565b15610fec5760405162461bcd60e51b8152600401808060200182810382526026815260200180613d8c6026913960400191505060405180910390fd5b610ff46132e9565b156110305760405162461bcd60e51b8152600401808060200182810382526026815260200180613d8c6026913960400191505060405180910390fd5b60065460ff161561107d576040805162461bcd60e51b8152602060048201526012602482015271151c99585cdd5c9e4e881b5a59dc985d195960721b604482015290519081900360640190fd5b6004544210156110cd576040805162461bcd60e51b8152602060048201526016602482015275115c1bd8da0e881b9bdd081cdd185c9d1959081e595d60521b604482015290519081900360640190fd5b600454421161111c576040805162461bcd60e51b8152602060048201526016602482015275115c1bd8da0e881b9bdd081cdd185c9d1959081e595d60521b604482015290519081900360640190fd5b6111246118f6565b61116a576040805162461bcd60e51b8152602060048201526012602482015271115c1bd8da0e881b9bdd08185b1b1bddd95960721b604482015290519081900360640190fd5b6008546040805163570ca73560e01b8152905130926001600160a01b03169163570ca735916004808301926020929190829003018186803b1580156111ae57600080fd5b505afa1580156111c2573d6000803e3d6000fd5b505050506040513d60208110156111d857600080fd5b50516001600160a01b031614801561126657506009546040805163570ca73560e01b8152905130926001600160a01b03169163570ca735916004808301926020929190829003018186803b15801561122f57600080fd5b505afa158015611243573d6000803e3d6000fd5b505050506040513d602081101561125957600080fd5b50516001600160a01b0316145b80156112e85750600a546040805163570ca73560e01b8152905130926001600160a01b03169163570ca735916004808301926020929190829003018186803b1580156112b157600080fd5b505afa1580156112c5573d6000803e3d6000fd5b505050506040513d60208110156112db57600080fd5b50516001600160a01b0316145b801561136a5750600c546040805163570ca73560e01b8152905130926001600160a01b03169163570ca735916004808301926020929190829003018186803b15801561133357600080fd5b505afa158015611347573d6000803e3d6000fd5b505050506040513d602081101561135d57600080fd5b50516001600160a01b0316145b6113a9576040805162461bcd60e51b815260206004820152601e6024820152600080516020613cee833981519152604482015290519081900360640190fd5b6113b161352a565b600e546000906113c9906001600160a01b0316613308565b90506113d36108cd565b81116113df5750611899565b60006113f6600f548361324690919063ffffffff16565b905060006114146305f5e1006108878461140e611d4b565b906130e9565b600854604080516340c10f1960e01b81523060048201526024810184905290519293506001600160a01b03909116916340c10f19916044808201926020929091908290030181600087803b15801561146b57600080fd5b505af115801561147f573d6000803e3d6000fd5b505050506040513d602081101561149557600080fd5b50506014546000906114b0906103e8906108879085906130e9565b90508015611579576008546007546040805163a9059cbb60e01b81526001600160a01b039283166004820152602481018590529051919092169163a9059cbb9160448083019260209291908290030181600087803b15801561151157600080fd5b505af1158015611525573d6000803e3d6000fd5b505050506040513d602081101561153b57600080fd5b5050604080514281526020810183905281517f0d3bfb2b4f5da80070611197dca8a26201730969c74aa0d961803c510c8a82d3929181900390910190a15b60006115966103e8610887601354866130e990919063ffffffff16565b905080156116a9576006546008546115c2916001600160a01b03918216916201000090910416836136ec565b60065460085460408051635ff03ed360e11b81526001600160a01b0392831660048201526024810185905260606044820152602060648201527f54726561737572793a20536569676e696f7261676520416c6c6f636174696f6e60848201529051620100009093049091169163bfe07da69160a48082019260009290919082900301818387803b15801561165557600080fd5b505af1158015611669573d6000803e3d6000fd5b5050604080514281526020810185905281517f4caa64211297e9263667fef70732dc65ca7a8e8c60dc72539ed94518628212d09450908190039091019150a15b60006116b5838361314b565b90506116c18482613246565b9350600061174f85610dce601254600960009054906101000a90046001600160a01b03166001600160a01b03166318160ddd6040518163ffffffff1660e01b815260040160206040518083038186803b15801561171d57600080fd5b505afa158015611731573d6000803e3d6000fd5b505050506040513d602081101561174757600080fd5b505190613246565b905080156117be57848114156117725761176f60646108878360506130e9565b90505b60125461177f908261314b565b601255604080514281526020810183905281517ff705142bf09f04297640495ddf7c59b7fd6f51894c5aea9602d631cf05f0efc2929181900390910190a15b60006117ca8683613246565b9050801561189057600c546008546117ef916001600160a01b039182169116836136ec565b600c54604080516397ffe1d760e01b81526004810184905290516001600160a01b03909216916397ffe1d79160248082019260009290919082900301818387803b15801561183c57600080fd5b505af1158015611850573d6000803e3d6000fd5b5050604080514281526020810185905281517f03ca7276ab7799bf73fb79d27ff0610cd7049574f2508ef8445162833d439aea9450908190039091019150a15b50505050505050505b42600555436000908152602081815260408083203284529091528082208054600160ff1991821681179092553384529190922080549091169091179055565b600c546001600160a01b031681565b6009546001600160a01b031681565b6000611900612fae565b611908611f35565b1015905090565b600d546001600160a01b031681565b6119266131a5565b6001546001600160a01b03908116911614611988576040805162461bcd60e51b815260206004820181905260248201527f4f776e61626c653a2063616c6c6572206973206e6f7420746865206f776e6572604482015290519081900360640190fd5b6001546040516000916001600160a01b0316907f8be0079c531659141344cd1fd0a4f28419497f9722a3daafe3b4186f6b6457e0908390a3600180546001600160a01b0319169055565b600b546001600160a01b031681565b6008546040805163570ca73560e01b8152905130926001600160a01b03169163570ca735916004808301926020929190829003018186803b158015611a2557600080fd5b505afa158015611a39573d6000803e3d6000fd5b505050506040513d6020811015611a4f57600080fd5b50516001600160a01b0316148015611add57506009546040805163570ca73560e01b8152905130926001600160a01b03169163570ca735916004808301926020929190829003018186803b158015611aa657600080fd5b505afa158015611aba573d6000803e3d6000fd5b505050506040513d6020811015611ad057600080fd5b50516001600160a01b0316145b8015611b5f5750600a546040805163570ca73560e01b8152905130926001600160a01b03169163570ca735916004808301926020929190829003018186803b158015611b2857600080fd5b505afa158015611b3c573d6000803e3d6000fd5b505050506040513d6020811015611b5257600080fd5b50516001600160a01b0316145b8015611be15750600c546040805163570ca73560e01b8152905130926001600160a01b03169163570ca735916004808301926020929190829003018186803b158015611baa57600080fd5b505afa158015611bbe573d6000803e3d6000fd5b505050506040513d6020811015611bd457600080fd5b50516001600160a01b0316145b611c20576040805162461bcd60e51b815260206004820152601e6024820152600080516020613cee833981519152604482015290519081900360640190fd5b600654610100900460ff1615611c75576040805162461bcd60e51b8152602060048201526015602482015274151c99585cdd5c9e4e881a5b9a5d1a585b1a5e9959605a1b604482015290519081900360640190fd5b600854604080516370a0823160e01b815230600482015290516001600160a01b03909216916370a0823191602480820192602092909190829003018186803b158015611cc057600080fd5b505afa158015611cd4573d6000803e3d6000fd5b505050506040513d6020811015611cea57600080fd5b50516012556006805461ff00191661010017905560408051438152905133917f25ff68dd81b34665b5ba7e553ee5511bf6812e12adb4a7e2c0d9e26b3099ce79919081900360200190a2565b6103e881565b6001546001600160a01b031690565b600061088d601254600860009054906101000a90046001600160a01b03166001600160a01b03166318160ddd6040518163ffffffff1660e01b815260040160206040518083038186803b15801561171d57600080fd5b60115481565b6002546001600160a01b03163314611df05760405162461bcd60e51b8152600401808060200182810382526024815260200180613d3e6024913960400191505060405180910390fd5b60138054908290556040805182815260208101849052815133927fe14a4b2db56e384a354fe79614355263a5b44513757cdbd7595802b447318961928290030190a25050565b6008546001600160a01b031681565b60105481565b600a546001600160a01b031681565b600f5481565b6002546001600160a01b03163314611ea95760405162461bcd60e51b8152600401808060200182810382526024815260200180613d3e6024913960400191505060405180910390fd5b600780546001600160a01b0383166001600160a01b03199091168117909155604080519182525133917ff87e12ba363db684b1b69a530d850a8a3f416932cd031e008ef71e42a1d88450919081900360200190a250565b6305f5e10081565b6006546201000090046001600160a01b031681565b600e5460009061088d906001600160a01b0316613308565b600061088d600354610887600454611f4f60045442613804565b90613246565b600d5460009061088d906001600160a01b0316613308565b60135481565b6002546001600160a01b03163314611fbc5760405162461bcd60e51b8152600401808060200182810382526024815260200180613d3e6024913960400191505060405180910390fd5b600e80546001600160a01b038381166001600160a01b03198316811790935560408051919092168082526020820193909352815133927f4c420de9ce56e7d1cb19d1be595af322a8a25d82f2e8116dbb1290b995b99056928290030190a25050565b600061088d61203160035461140e612fae565b6004549061314b565b60045490565b6002546001600160a01b031633146120895760405162461bcd60e51b8152600401808060200182810382526024815260200180613d3e6024913960400191505060405180910390fd5b6008546040805163570ca73560e01b8152905130926001600160a01b03169163570ca735916004808301926020929190829003018186803b1580156120cd57600080fd5b505afa1580156120e1573d6000803e3d6000fd5b505050506040513d60208110156120f757600080fd5b50516001600160a01b031614801561218557506009546040805163570ca73560e01b8152905130926001600160a01b03169163570ca735916004808301926020929190829003018186803b15801561214e57600080fd5b505afa158015612162573d6000803e3d6000fd5b505050506040513d602081101561217857600080fd5b50516001600160a01b0316145b80156122075750600a546040805163570ca73560e01b8152905130926001600160a01b03169163570ca735916004808301926020929190829003018186803b1580156121d057600080fd5b505afa1580156121e4573d6000803e3d6000fd5b505050506040513d60208110156121fa57600080fd5b50516001600160a01b0316145b80156122895750600c546040805163570ca73560e01b8152905130926001600160a01b03169163570ca735916004808301926020929190829003018186803b15801561225257600080fd5b505afa158015612266573d6000803e3d6000fd5b505050506040513d602081101561227c57600080fd5b50516001600160a01b0316145b6122c8576040805162461bcd60e51b815260206004820152601e6024820152600080516020613cee833981519152604482015290519081900360640190fd5b60065460ff1615612315576040805162461bcd60e51b8152602060048201526012602482015271151c99585cdd5c9e4e881b5a59dc985d195960721b604482015290519081900360640190fd5b600854604080516329605e7760e01b81526001600160a01b038481166004830152915191909216916329605e7791602480830192600092919082900301818387803b15801561236357600080fd5b505af1158015612377573d6000803e3d6000fd5b50506008546040805163f2fde38b60e01b81526001600160a01b038681166004830152915191909216935063f2fde38b9250602480830192600092919082900301818387803b1580156123c957600080fd5b505af11580156123dd573d6000803e3d6000fd5b5050600854604080516370a0823160e01b815230600482015290516001600160a01b03909216935063a9059cbb9250849184916370a08231916024808301926020929190829003018186803b15801561243557600080fd5b505afa158015612449573d6000803e3d6000fd5b505050506040513d602081101561245f57600080fd5b5051604080516001600160e01b031960e086901b1681526001600160a01b03909316600484015260248301919091525160448083019260209291908290030181600087803b1580156124b057600080fd5b505af11580156124c4573d6000803e3d6000fd5b505050506040513d60208110156124da57600080fd5b5050600954604080516329605e7760e01b81526001600160a01b038481166004830152915191909216916329605e7791602480830192600092919082900301818387803b15801561252a57600080fd5b505af115801561253e573d6000803e3d6000fd5b50506009546040805163f2fde38b60e01b81526001600160a01b038681166004830152915191909216935063f2fde38b9250602480830192600092919082900301818387803b15801561259057600080fd5b505af11580156125a4573d6000803e3d6000fd5b5050600954604080516370a0823160e01b815230600482015290516001600160a01b03909216935063a9059cbb9250849184916370a08231916024808301926020929190829003018186803b1580156125fc57600080fd5b505afa158015612610573d6000803e3d6000fd5b505050506040513d602081101561262657600080fd5b5051604080516001600160e01b031960e086901b1681526001600160a01b03909316600484015260248301919091525160448083019260209291908290030181600087803b15801561267757600080fd5b505af115801561268b573d6000803e3d6000fd5b505050506040513d60208110156126a157600080fd5b5050600a54604080516329605e7760e01b81526001600160a01b038481166004830152915191909216916329605e7791602480830192600092919082900301818387803b1580156126f157600080fd5b505af1158015612705573d6000803e3d6000fd5b5050600a546040805163f2fde38b60e01b81526001600160a01b038681166004830152915191909216935063f2fde38b9250602480830192600092919082900301818387803b15801561275757600080fd5b505af115801561276b573d6000803e3d6000fd5b5050600a54604080516370a0823160e01b815230600482015290516001600160a01b03909216935063a9059cbb9250849184916370a08231916024808301926020929190829003018186803b1580156127c357600080fd5b505afa1580156127d7573d6000803e3d6000fd5b505050506040513d60208110156127ed57600080fd5b5051604080516001600160e01b031960e086901b1681526001600160a01b03909316600484015260248301919091525160448083019260209291908290030181600087803b15801561283e57600080fd5b505af1158015612852573d6000803e3d6000fd5b505050506040513d602081101561286857600080fd5b50506006805460ff191660011790556040516001600160a01b038216907f0caca70b66aed56b0630989a049110023c5a3f37e0ea4b6ce96fc747663f3ebc90600090a250565b6002546001600160a01b031633146128f75760405162461bcd60e51b8152600401808060200182810382526024815260200180613d3e6024913960400191505060405180910390fd5b600d80546001600160a01b038381166001600160a01b03198316811790935560408051919092168082526020820193909352815133927fcafe5bd353cebaf68e66afe57f24a25988157e8bb99f4233603eec0ab74a5f01928290030190a25050565b6129616132ca565b1561299d5760405162461bcd60e51b8152600401808060200182810382526026815260200180613d8c6026913960400191505060405180910390fd5b6129a56132e9565b156129e15760405162461bcd60e51b8152600401808060200182810382526026815260200180613d8c6026913960400191505060405180910390fd5b60065460ff1615612a2e576040805162461bcd60e51b8152602060048201526012602482015271151c99585cdd5c9e4e881b5a59dc985d195960721b604482015290519081900360640190fd5b600454421015612a7e576040805162461bcd60e51b8152602060048201526016602482015275115c1bd8da0e881b9bdd081cdd185c9d1959081e595d60521b604482015290519081900360640190fd5b6008546040805163570ca73560e01b8152905130926001600160a01b03169163570ca735916004808301926020929190829003018186803b158015612ac257600080fd5b505afa158015612ad6573d6000803e3d6000fd5b505050506040513d6020811015612aec57600080fd5b50516001600160a01b0316148015612b7a57506009546040805163570ca73560e01b8152905130926001600160a01b03169163570ca735916004808301926020929190829003018186803b158015612b4357600080fd5b505afa158015612b57573d6000803e3d6000fd5b505050506040513d6020811015612b6d57600080fd5b50516001600160a01b0316145b8015612bfc5750600a546040805163570ca73560e01b8152905130926001600160a01b03169163570ca735916004808301926020929190829003018186803b158015612bc557600080fd5b505afa158015612bd9573d6000803e3d6000fd5b505050506040513d6020811015612bef57600080fd5b50516001600160a01b0316145b8015612c7e5750600c546040805163570ca73560e01b8152905130926001600160a01b03169163570ca735916004808301926020929190829003018186803b158015612c4757600080fd5b505afa158015612c5b573d6000803e3d6000fd5b505050506040513d6020811015612c7157600080fd5b50516001600160a01b0316145b612cbd576040805162461bcd60e51b815260206004820152601e6024820152600080516020613cee833981519152604482015290519081900360640190fd5b60008111612cfc5760405162461bcd60e51b815260040180806020018281038252602e815260200180613bc4602e913960400191505060405180910390fd5b600d54600090612d14906001600160a01b0316613308565b9050612d1e6108cd565b8111612d5b5760405162461bcd60e51b8152600401808060200182810382526032815260200180613bf26032913960400191505060405180910390fd5b600854604080516370a0823160e01b8152306004820152905184926001600160a01b0316916370a08231916024808301926020929190829003018186803b158015612da557600080fd5b505afa158015612db9573d6000803e3d6000fd5b505050506040513d6020811015612dcf57600080fd5b50511015612e0e5760405162461bcd60e51b8152600401808060200182810382526025815260200180613c726025913960400191505060405180910390fd5b612e26612e1d60125484613514565b60125490613246565b6012556009546040805163079cc67960e41b81523360048201526024810185905290516001600160a01b03909216916379cc67909160448082019260009290919082900301818387803b158015612e7c57600080fd5b505af1158015612e90573d6000803e3d6000fd5b5050600854612eac92506001600160a01b031690503384613814565b60408051838152905133917f9c3478f12dce08d85673d802af16ed5b9ebab8420ffd7b145d65d3157084b2ce919081900360200190a250612eeb61352a565b50436000908152602081815260408083203284529091528082208054600160ff1991821681179092553384529190922080549091169091179055565b6002546001600160a01b03163314612f705760405162461bcd60e51b8152600401808060200182810382526024815260200180613d3e6024913960400191505060405180910390fd5b601481905560408051828152905133917f1bea9736c359e1c629b577d89033b7e78cf7e7d211ab808a0ccd1213e198fc9f919081900360200190a250565b60006005546004541415612fcb57612fc4610868565b90506107e0565b61088d6001612fd8610868565b9061314b565b612fe66131a5565b6001546001600160a01b03908116911614613048576040805162461bcd60e51b815260206004820181905260248201527f4f776e61626c653a2063616c6c6572206973206e6f7420746865206f776e6572604482015290519081900360640190fd5b6001600160a01b03811661308d5760405162461bcd60e51b8152600401808060200182810382526026815260200180613b9e6026913960400191505060405180910390fd5b6001546040516001600160a01b038084169216907f8be0079c531659141344cd1fd0a4f28419497f9722a3daafe3b4186f6b6457e090600090a3600180546001600160a01b0319166001600160a01b0392909216919091179055565b6000826130f857506000613145565b8282028284828161310557fe5b04146131425760405162461bcd60e51b8152600401808060200182810382526021815260200180613c976021913960400191505060405180910390fd5b90505b92915050565b600082820183811015613142576040805162461bcd60e51b815260206004820152601b60248201527f536166654d6174683a206164646974696f6e206f766572666c6f770000000000604482015290519081900360640190fd5b3390565b6001600160a01b0381166131ee5760405162461bcd60e51b815260040180806020018281038252602d815260200180613c45602d913960400191505060405180910390fd5b6040516001600160a01b038216906000907f74da04524d50c64947f5dd5381ef1a4dca5cba8ed1d816243f9e48aa0b5617ed908290a3600280546001600160a01b0319166001600160a01b0392909216919091179055565b600061314283836040518060400160405280601e81526020017f536166654d6174683a207375627472616374696f6e206f766572666c6f770000815250613866565b600061314283836040518060400160405280601a81526020017f536166654d6174683a206469766973696f6e206279207a65726f0000000000008152506138fd565b4360009081526020818152604080832032845290915290205460ff1690565b4360009081526020818152604080832033845290915290205460ff1690565b60085460408051633ddac95360e01b81526001600160a01b039283166004820152670de0b6b3a764000060248201529051600092841691633ddac953916044808301926020929190829003018186803b15801561336457600080fd5b505afa92505050801561338957506040513d602081101561338457600080fd5b505160015b6131455760405162461bcd60e51b8152600401808060200182810382526036815260200180613cb86036913960400191505060405180910390fd5b600d546040805163398bac6360e01b815290516000926001600160a01b03169163398bac63916004808301926020929190829003018186803b15801561340957600080fd5b505afa15801561341d573d6000803e3d6000fd5b505050506040513d602081101561343357600080fd5b5051601054909150811461351057600f546000906134519084613246565b90506000600960009054906101000a90046001600160a01b03166001600160a01b03166318160ddd6040518163ffffffff1660e01b815260040160206040518083038186803b1580156134a357600080fd5b505afa1580156134b7573d6000803e3d6000fd5b505050506040513d60208110156134cd57600080fd5b505190506134e9670de0b6b3a76400006108878461140e611d4b565b6011819055613505906134fc9083613514565b60115490613246565b601155505060108190555b5050565b60008183106135235781613142565b5090919050565b600d60009054906101000a90046001600160a01b03166001600160a01b0316636a2ab6026040518163ffffffff1660e01b815260040160206040518083038186803b15801561357857600080fd5b505afa15801561358c573d6000803e3d6000fd5b505050506040513d60208110156135a257600080fd5b50511561360c57600d60009054906101000a90046001600160a01b03166001600160a01b031663a2e620456040518163ffffffff1660e01b8152600401600060405180830381600087803b1580156135f957600080fd5b505af192505050801561360a575060015b505b600e60009054906101000a90046001600160a01b03166001600160a01b0316636a2ab6026040518163ffffffff1660e01b815260040160206040518083038186803b15801561365a57600080fd5b505afa15801561366e573d6000803e3d6000fd5b505050506040513d602081101561368457600080fd5b5051156136ea57600e60009054906101000a90046001600160a01b03166001600160a01b031663a2e620456040518163ffffffff1660e01b8152600401600060405180830381600087803b1580156136db57600080fd5b505af192505050801561085c57505b565b801580613772575060408051636eb1769f60e11b81523060048201526001600160a01b03848116602483015291519185169163dd62ed3e91604480820192602092909190829003018186803b15801561374457600080fd5b505afa158015613758573d6000803e3d6000fd5b505050506040513d602081101561376e57600080fd5b5051155b6137ad5760405162461bcd60e51b8152600401808060200182810382526036815260200180613db26036913960400191505060405180910390fd5b604080516001600160a01b038416602482015260448082018490528251808303909101815260649091019091526020810180516001600160e01b031663095ea7b360e01b1790526137ff908490613962565b505050565b6000818310156135235781613142565b604080516001600160a01b038416602482015260448082018490528251808303909101815260649091019091526020810180516001600160e01b031663a9059cbb60e01b1790526137ff908490613962565b600081848411156138f55760405162461bcd60e51b81526004018080602001828103825283818151815260200191508051906020019080838360005b838110156138ba5781810151838201526020016138a2565b50505050905090810190601f1680156138e75780820380516001836020036101000a031916815260200191505b509250505060405180910390fd5b505050900390565b6000818361394c5760405162461bcd60e51b81526020600482018181528351602484015283519092839260449091019190850190808383600083156138ba5781810151838201526020016138a2565b50600083858161395857fe5b0495945050505050565b60606139b7826040518060400160405280602081526020017f5361666545524332303a206c6f772d6c6576656c2063616c6c206661696c6564815250856001600160a01b0316613a139092919063ffffffff16565b8051909150156137ff578080602001905160208110156139d657600080fd5b50516137ff5760405162461bcd60e51b815260040180806020018281038252602a815260200180613d62602a913960400191505060405180910390fd5b6060613a228484600085613a2a565b949350505050565b6060613a3585613b97565b613a86576040805162461bcd60e51b815260206004820152601d60248201527f416464726573733a2063616c6c20746f206e6f6e2d636f6e7472616374000000604482015290519081900360640190fd5b60006060866001600160a01b031685876040518082805190602001908083835b60208310613ac55780518252601f199092019160209182019101613aa6565b6001836020036101000a03801982511681845116808217855250505050505090500191505060006040518083038185875af1925050503d8060008114613b27576040519150601f19603f3d011682016040523d82523d6000602084013e613b2c565b606091505b50915091508115613b40579150613a229050565b805115613b505780518082602001fd5b60405162461bcd60e51b81526020600482018181528651602484015286518793919283926044019190850190808383600083156138ba5781810151838201526020016138a2565b3b15159056fe4f776e61626c653a206e6577206f776e657220697320746865207a65726f206164647265737354726561737572793a2063616e6e6f742072656465656d20626f6e64732077697468207a65726f20616d6f756e7454726561737572793a20636173685072696365206e6f7420656c696769626c6520666f7220626f6e6420707572636861736554726561737572793a20616d6f756e74206578636565647320626f6e64206361706f70657261746f723a207a65726f206164647265737320676976656e20666f72206e6577206f70657261746f7254726561737572793a20747265617375727920686173206e6f206d6f726520627564676574536166654d6174683a206d756c7469706c69636174696f6e206f766572666c6f7754726561737572793a206661696c656420746f20636f6e73756c7420636173682070726963652066726f6d20746865206f7261636c6554726561737572793a206e656564206d6f7265207065726d697373696f6e000054726561737572793a2063616e6e6f7420707572636861736520626f6e64732077697468207a65726f20616d6f756e746f70657261746f723a2063616c6c6572206973206e6f7420746865206f70657261746f725361666545524332303a204552433230206f7065726174696f6e20646964206e6f742073756363656564436f6e747261637447756172643a206f6e6520626c6f636b2c206f6e652066756e6374696f6e5361666545524332303a20617070726f76652066726f6d206e6f6e2d7a65726f20746f206e6f6e2d7a65726f20616c6c6f77616e6365a264697066735822122097bf65f2f10fc0a5afb08d849e0fceaeef0f6ce91f0c17bf3624d8f3ce3a360964736f6c634300060c0033536166654d6174683a206d756c7469706c69636174696f6e206f766572666c6f77",
  "linkReferences": {},
  "deployedLinkReferences": {}
}