{
  "_format": "hh-sol-artifact-1",
  "contractName": "Oracle",
  "sourceName": "contracts/Oracle.sol",
  "abi": [
    {
      "inputs": [
        {
          "internalType": "address",
          "name": "_factory",
          "type": "address"
        },
        {
          "internalType": "address",
          "name": "_tokenA",
          "type": "address"
        },
        {
          "internalType": "address",
          "name": "_tokenB",
          "type": "address"
        },
        {
          "internalType": "uint256",
          "name": "_period",
          "type": "uint256"
        },
        {
          "internalType": "uint256",
          "name": "_startTime",
          "type": "uint256"
        }
      ],
      "stateMutability": "nonpayable",
      "type": "constructor"
    },
    {
      "anonymous": false,
      "inputs": [
        {
          "indexed": true,
          "internalType": "address",
          "name": "previousOperator",
          "type": "address"
        },
        {
          "indexed": true,
          "internalType": "address",
          "name": "newOperator",
          "type": "address"
        }
      ],
      "name": "OperatorTransferred",
      "type": "event"
    },
    {
      "anonymous": false,
      "inputs": [
        {
          "indexed": true,
          "internalType": "address",
          "name": "previousOwner",
          "type": "address"
        },
        {
          "indexed": true,
          "internalType": "address",
          "name": "newOwner",
          "type": "address"
        }
      ],
      "name": "OwnershipTransferred",
      "type": "event"
    },
    {
      "anonymous": false,
      "inputs": [
        {
          "indexed": false,
          "internalType": "uint256",
          "name": "price0CumulativeLast",
          "type": "uint256"
        },
        {
          "indexed": false,
          "internalType": "uint256",
          "name": "price1CumulativeLast",
          "type": "uint256"
        }
      ],
      "name": "Updated",
      "type": "event"
    },
    {
      "inputs": [],
      "name": "blockTimestampLast",
      "outputs": [
        {
          "internalType": "uint32",
          "name": "",
          "type": "uint32"
        }
      ],
      "stateMutability": "view",
      "type": "function"
    },
    {
      "inputs": [
        {
          "internalType": "address",
          "name": "token",
          "type": "address"
        },
        {
          "internalType": "uint256",
          "name": "amountIn",
          "type": "uint256"
        }
      ],
      "name": "consult",
      "outputs": [
        {
          "internalType": "uint144",
          "name": "amountOut",
          "type": "uint144"
        }
      ],
      "stateMutability": "view",
      "type": "function"
    },
    {
      "inputs": [],
      "name": "getCurrentEpoch",
      "outputs": [
        {
          "internalType": "uint256",
          "name": "",
          "type": "uint256"
        }
      ],
      "stateMutability": "view",
      "type": "function"
    },
    {
      "inputs": [],
      "name": "getLastEpoch",
      "outputs": [
        {
          "internalType": "uint256",
          "name": "",
          "type": "uint256"
        }
      ],
      "stateMutability": "view",
      "type": "function"
    },
    {
      "inputs": [],
      "name": "getNextEpoch",
      "outputs": [
        {
          "internalType": "uint256",
          "name": "",
          "type": "uint256"
        }
      ],
      "stateMutability": "view",
      "type": "function"
    },
    {
      "inputs": [],
      "name": "getPeriod",
      "outputs": [
        {
          "internalType": "uint256",
          "name": "",
          "type": "uint256"
        }
      ],
      "stateMutability": "view",
      "type": "function"
    },
    {
      "inputs": [],
      "name": "getStartTime",
      "outputs": [
        {
          "internalType": "uint256",
          "name": "",
          "type": "uint256"
        }
      ],
      "stateMutability": "view",
      "type": "function"
    },
    {
      "inputs": [],
      "name": "isOperator",
      "outputs": [
        {
          "internalType": "bool",
          "name": "",
          "type": "bool"
        }
      ],
      "stateMutability": "view",
      "type": "function"
    },
    {
      "inputs": [],
      "name": "nextEpochPoint",
      "outputs": [
        {
          "internalType": "uint256",
          "name": "",
          "type": "uint256"
        }
      ],
      "stateMutability": "view",
      "type": "function"
    },
    {
      "inputs": [],
      "name": "operator",
      "outputs": [
        {
          "internalType": "address",
          "name": "",
          "type": "address"
        }
      ],
      "stateMutability": "view",
      "type": "function"
    },
    {
      "inputs": [],
      "name": "owner",
      "outputs": [
        {
          "internalType": "address",
          "name": "",
          "type": "address"
        }
      ],
      "stateMutability": "view",
      "type": "function"
    },
    {
      "inputs": [],
      "name": "pair",
      "outputs": [
        {
          "internalType": "contract IUniswapV2Pair",
          "name": "",
          "type": "address"
        }
      ],
      "stateMutability": "view",
      "type": "function"
    },
    {
      "inputs": [
        {
          "internalType": "address",
          "name": "factory",
          "type": "address"
        },
        {
          "internalType": "address",
          "name": "tokenA",
          "type": "address"
        },
        {
          "internalType": "address",
          "name": "tokenB",
          "type": "address"
        }
      ],
      "name": "pairFor",
      "outputs": [
        {
          "internalType": "address",
          "name": "lpt",
          "type": "address"
        }
      ],
      "stateMutability": "pure",
      "type": "function"
    },
    {
      "inputs": [],
      "name": "price0Average",
      "outputs": [
        {
          "internalType": "uint224",
          "name": "_x",
          "type": "uint224"
        }
      ],
      "stateMutability": "view",
      "type": "function"
    },
    {
      "inputs": [],
      "name": "price0CumulativeLast",
      "outputs": [
        {
          "internalType": "uint256",
          "name": "",
          "type": "uint256"
        }
      ],
      "stateMutability": "view",
      "type": "function"
    },
    {
      "inputs": [],
      "name": "price1Average",
      "outputs": [
        {
          "internalType": "uint224",
          "name": "_x",
          "type": "uint224"
        }
      ],
      "stateMutability": "view",
      "type": "function"
    },
    {
      "inputs": [],
      "name": "price1CumulativeLast",
      "outputs": [
        {
          "internalType": "uint256",
          "name": "",
          "type": "uint256"
        }
      ],
      "stateMutability": "view",
      "type": "function"
    },
    {
      "inputs": [],
      "name": "renounceOwnership",
      "outputs": [],
      "stateMutability": "nonpayable",
      "type": "function"
    },
    {
      "inputs": [
        {
          "internalType": "uint256",
          "name": "_period",
          "type": "uint256"
        }
      ],
      "name": "setPeriod",
      "outputs": [],
      "stateMutability": "nonpayable",
      "type": "function"
    },
    {
      "inputs": [],
      "name": "token0",
      "outputs": [
        {
          "internalType": "address",
          "name": "",
          "type": "address"
        }
      ],
      "stateMutability": "view",
      "type": "function"
    },
    {
      "inputs": [],
      "name": "token1",
      "outputs": [
        {
          "internalType": "address",
          "name": "",
          "type": "address"
        }
      ],
      "stateMutability": "view",
      "type": "function"
    },
    {
      "inputs": [
        {
          "internalType": "address",
          "name": "newOperator_",
          "type": "address"
        }
      ],
      "name": "transferOperator",
      "outputs": [],
      "stateMutability": "nonpayable",
      "type": "function"
    },
    {
      "inputs": [
        {
          "internalType": "address",
          "name": "newOwner",
          "type": "address"
        }
      ],
      "name": "transferOwnership",
      "outputs": [],
      "stateMutability": "nonpayable",
      "type": "function"
    },
    {
      "inputs": [],
      "name": "update",
      "outputs": [],
      "stateMutability": "nonpayable",
      "type": "function"
    }
  ],
  "bytecode": "0x60806040523480156200001157600080fd5b5060405162001aa638038062001aa6833981810160405260a08110156200003757600080fd5b50805160208201516040830151606084015160809094015192939192909190818160008062000065620004f3565b600080546001600160a01b0319166001600160a01b0383169081178255604051929350917f8be0079c531659141344cd1fd0a4f28419497f9722a3daafe3b4186f6b6457e0908290a350620000b9620004f3565b600180546001600160a01b0319166001600160a01b0392831617908190556040519116906000907f74da04524d50c64947f5dd5381ef1a4dca5cba8ed1d816243f9e48aa0b5617ed908290a34282116200015a576040805162461bcd60e51b815260206004820152601960248201527f45706f63683a20696e76616c69642073746172742074696d6500000000000000604482015290519081900360640190fd5b6002839055600382905562000197620001808285620004f7602090811b62000a0e17901c565b6003546200055e60201b62000a671790919060201c565b6004819055505050506000620001ba868686620005b960201b62000ac11760201c565b905080600760006101000a8154816001600160a01b0302191690836001600160a01b03160217905550806001600160a01b0316630dfe16816040518163ffffffff1660e01b815260040160206040518083038186803b1580156200021d57600080fd5b505afa15801562000232573d6000803e3d6000fd5b505050506040513d60208110156200024957600080fd5b5051600580546001600160a01b0319166001600160a01b039283161790556040805163d21220a760e01b815290519183169163d21220a791600480820192602092909190829003018186803b158015620002a257600080fd5b505afa158015620002b7573d6000803e3d6000fd5b505050506040513d6020811015620002ce57600080fd5b5051600680546001600160a01b0319166001600160a01b0392831617905560408051635909c0d560e01b8152905191831691635909c0d591600480820192602092909190829003018186803b1580156200032757600080fd5b505afa1580156200033c573d6000803e3d6000fd5b505050506040513d60208110156200035357600080fd5b505160085560408051635a3d549360e01b815290516001600160a01b03831691635a3d5493916004808301926020929190829003018186803b1580156200039957600080fd5b505afa158015620003ae573d6000803e3d6000fd5b505050506040513d6020811015620003c557600080fd5b505160095560408051630240bc6b60e21b8152905160009182916001600160a01b03851691630902f1ac916004808301926060929190829003018186803b1580156200041057600080fd5b505afa15801562000425573d6000803e3d6000fd5b505050506040513d60608110156200043c57600080fd5b50805160208201516040909201516007805463ffffffff909216600160a01b0263ffffffff60a01b19909216919091179055925090506001600160701b038216158015906200049357506001600160701b03811615155b620004e5576040805162461bcd60e51b815260206004820152601360248201527f4f7261636c653a204e4f5f524553455256455300000000000000000000000000604482015290519081900360640190fd5b505050505050505062000770565b3390565b600082620005085750600062000558565b828202828482816200051657fe5b0414620005555760405162461bcd60e51b815260040180806020018281038252602181526020018062001a856021913960400191505060405180910390fd5b90505b92915050565b60008282018381101562000555576040805162461bcd60e51b815260206004820152601b60248201527f536166654d6174683a206164646974696f6e206f766572666c6f770000000000604482015290519081900360640190fd5b60008080620005c985856200068d565b604080516001600160601b0319606094851b811660208084019190915293851b81166034830152825160288184030181526048830184528051908501207fff0000000000000000000000000000000000000000000000000000000000000060688401529a90941b9093166069840152607d8301989098527f96e8ac4277198ff8b6f785478aa9a39f403cb768dd02cbee326c3e7da348845f609d808401919091528851808403909101815260bd909201909752805196019590952095945050505050565b600080826001600160a01b0316846001600160a01b03161415620006e35760405162461bcd60e51b815260040180806020018281038252602581526020018062001a606025913960400191505060405180910390fd5b826001600160a01b0316846001600160a01b0316106200070557828462000708565b83835b90925090506001600160a01b03821662000769576040805162461bcd60e51b815260206004820152601e60248201527f556e697377617056324c6962726172793a205a45524f5f414444524553530000604482015290519081900360640190fd5b9250929050565b6112e080620007806000396000f3fe608060405234801561001057600080fd5b50600436106101585760003560e01c8063715018a6116100c3578063c5700a021161007c578063c5700a02146102fb578063c5967c261461031c578063c828371e14610324578063d21220a71461032c578063efe97d0514610334578063f2fde38b1461033c57610158565b8063715018a6146102cb5780638da5cb5b146102d3578063a2e62045146102db578063a6bb4539146102e3578063a8aa1b31146102eb578063b97dd9e2146102f357610158565b80634456eda2116101155780634456eda21461023b578063570ca735146102575780635909c0d51461025f5780635a3d5493146102675780635e6aaf2c1461026f5780636d91c0e21461029357610158565b80630dfe16811461015d5780630f3a9f65146101815780631ed24195146101a057806329605e77146101ba578063398bac63146101e05780633ddac953146101e8575b600080fd5b610165610362565b604080516001600160a01b039092168252519081900360200190f35b61019e6004803603602081101561019757600080fd5b5035610371565b005b6101a86103bf565b60408051918252519081900360200190f35b61019e600480360360208110156101d057600080fd5b50356001600160a01b03166103c6565b6101a861043c565b610214600480360360408110156101fe57600080fd5b506001600160a01b038135169060200135610466565b6040805171ffffffffffffffffffffffffffffffffffff9092168252519081900360200190f35b61024361053c565b604080519115158252519081900360200190f35b610165610562565b6101a8610571565b6101a8610577565b61027761057d565b604080516001600160e01b039092168252519081900360200190f35b610165600480360360608110156102a957600080fd5b506001600160a01b03813581169160208101358216916040909101351661058c565b61019e6105a1565b610165610655565b61019e610664565b61027761084c565b61016561085b565b6101a861086a565b61030361088a565b6040805163ffffffff9092168252519081900360200190f35b6101a861089d565b6101a86108bf565b6101656108c5565b6101a86108d4565b61019e6004803603602081101561035257600080fd5b50356001600160a01b0316610904565b6005546001600160a01b031681565b6001546001600160a01b031633146103ba5760405162461bcd60e51b81526004018080602001828103825260248152602001806112646024913960400191505060405180910390fd5b600255565b6002545b90565b6103ce610b81565b6000546001600160a01b03908116911614610430576040805162461bcd60e51b815260206004820181905260248201527f4f776e61626c653a2063616c6c6572206973206e6f7420746865206f776e6572604482015290519081900360640190fd5b61043981610b85565b50565b600061046160025461045b600354600454610c2290919063ffffffff16565b90610c64565b905090565b6005546000906001600160a01b03848116911614156104b2576040805160208101909152600a546001600160e01b031681526104ab906104a69084610ca6565b610d24565b9050610536565b6006546001600160a01b0384811691161461050c576040805162461bcd60e51b815260206004820152601560248201527427b930b1b6329d1024a72b20a624a22faa27a5a2a760591b604482015290519081900360640190fd5b6040805160208101909152600b546001600160e01b03168152610533906104a69084610ca6565b90505b92915050565b6001546000906001600160a01b0316610553610b81565b6001600160a01b031614905090565b6001546001600160a01b031690565b60085481565b60095481565b600b546001600160e01b031681565b6000610599848484610ac1565b949350505050565b6105a9610b81565b6000546001600160a01b0390811691161461060b576040805162461bcd60e51b815260206004820181905260248201527f4f776e61626c653a2063616c6c6572206973206e6f7420746865206f776e6572604482015290519081900360640190fd5b600080546040516001600160a01b03909116907f8be0079c531659141344cd1fd0a4f28419497f9722a3daafe3b4186f6b6457e0908390a3600080546001600160a01b0319169055565b6000546001600160a01b031690565b60035442116106b3576040805162461bcd60e51b8152602060048201526016602482015275115c1bd8da0e881b9bdd081cdd185c9d1959081e595d60521b604482015290519081900360640190fd5b6106bb6108d4565b6106c361086a565b101561070b576040805162461bcd60e51b8152602060048201526012602482015271115c1bd8da0e881b9bdd08185b1b1bddd95960721b604482015290519081900360640190fd5b60075460009081908190610727906001600160a01b0316610d2b565b600754929550909350915063ffffffff600160a01b909104811682039081166107535750505050610846565b60405180602001604052808263ffffffff1660085487038161077157fe5b046001600160e01b039081169091529051600a80546001600160e01b031916919092161790556040805160208101909152600954819063ffffffff8416908603816107b857fe5b046001600160e01b039081169091529051600b80546001600160e01b03191691909216179055600884905560098390556007805463ffffffff60a01b1916600160a01b63ffffffff851602179055604080518581526020810185905281517fd78a0cb8bb633d06981248b816e7bd33c2a35a6089241d099fa519e361cab902929181900390910190a1505050505b42600455565b600a546001600160e01b031681565b6007546001600160a01b031681565b600061046160025461045b60035461088460035442610efa565b90610c22565b600754600160a01b900463ffffffff1681565b60006104616108b66002546108b06108d4565b90610a0e565b60035490610a67565b60035490565b6006546001600160a01b031681565b600060045460035414156108f1576108ea61043c565b90506103c3565b61046160016108fe61043c565b90610a67565b61090c610b81565b6000546001600160a01b0390811691161461096e576040805162461bcd60e51b815260206004820181905260248201527f4f776e61626c653a2063616c6c6572206973206e6f7420746865206f776e6572604482015290519081900360640190fd5b6001600160a01b0381166109b35760405162461bcd60e51b81526004018080602001828103825260268152602001806111cb6026913960400191505060405180910390fd5b600080546040516001600160a01b03808516939216917f8be0079c531659141344cd1fd0a4f28419497f9722a3daafe3b4186f6b6457e091a3600080546001600160a01b0319166001600160a01b0392909216919091179055565b600082610a1d57506000610536565b82820282848281610a2a57fe5b04146105335760405162461bcd60e51b81526004018080602001828103825260218152602001806112436021913960400191505060405180910390fd5b600082820183811015610533576040805162461bcd60e51b815260206004820152601b60248201527f536166654d6174683a206164646974696f6e206f766572666c6f770000000000604482015290519081900360640190fd5b6000806000610ad08585610f11565b604080516bffffffffffffffffffffffff19606094851b811660208084019190915293851b81166034830152825160288184030181526048830184528051908501206001600160f81b031960688401529a90941b9093166069840152607d8301989098527f96e8ac4277198ff8b6f785478aa9a39f403cb768dd02cbee326c3e7da348845f609d808401919091528851808403909101815260bd909201909752805196019590952095945050505050565b3390565b6001600160a01b038116610bca5760405162461bcd60e51b815260040180806020018281038252602d815260200180611216602d913960400191505060405180910390fd5b6040516001600160a01b038216906000907f74da04524d50c64947f5dd5381ef1a4dca5cba8ed1d816243f9e48aa0b5617ed908290a3600180546001600160a01b0319166001600160a01b0392909216919091179055565b600061053383836040518060400160405280601e81526020017f536166654d6174683a207375627472616374696f6e206f766572666c6f770000815250610fef565b600061053383836040518060400160405280601a81526020017f536166654d6174683a206469766973696f6e206279207a65726f000000000000815250611086565b610cae6111a5565b6000821580610cd457505082516001600160e01b031682810290838281610cd157fe5b04145b610d0f5760405162461bcd60e51b81526004018080602001828103825260238152602001806112886023913960400191505060405180910390fd5b60408051602081019091529081529392505050565b5160701c90565b6000806000610d386110eb565b9050836001600160a01b0316635909c0d56040518163ffffffff1660e01b815260040160206040518083038186803b158015610d7357600080fd5b505afa158015610d87573d6000803e3d6000fd5b505050506040513d6020811015610d9d57600080fd5b505160408051635a3d549360e01b815290519194506001600160a01b03861691635a3d549391600480820192602092909190829003018186803b158015610de357600080fd5b505afa158015610df7573d6000803e3d6000fd5b505050506040513d6020811015610e0d57600080fd5b505160408051630240bc6b60e21b81529051919350600091829182916001600160a01b03891691630902f1ac916004808301926060929190829003018186803b158015610e5957600080fd5b505afa158015610e6d573d6000803e3d6000fd5b505050506040513d6060811015610e8357600080fd5b5080516020820151604090920151909450909250905063ffffffff80821690851614610ef05780840363ffffffff8116610ebd84866110f5565b516001600160e01b031602969096019563ffffffff8116610ede85856110f5565b516001600160e01b0316029590950194505b5050509193909250565b600081831015610f0a5781610533565b5090919050565b600080826001600160a01b0316846001600160a01b03161415610f655760405162461bcd60e51b81526004018080602001828103825260258152602001806111f16025913960400191505060405180910390fd5b826001600160a01b0316846001600160a01b031610610f85578284610f88565b83835b90925090506001600160a01b038216610fe8576040805162461bcd60e51b815260206004820152601e60248201527f556e697377617056324c6962726172793a205a45524f5f414444524553530000604482015290519081900360640190fd5b9250929050565b6000818484111561107e5760405162461bcd60e51b81526004018080602001828103825283818151815260200191508051906020019080838360005b8381101561104357818101518382015260200161102b565b50505050905090810190601f1680156110705780820380516001836020036101000a031916815260200191505b509250505060405180910390fd5b505050900390565b600081836110d55760405162461bcd60e51b815260206004820181815283516024840152835190928392604490910191908501908083836000831561104357818101518382015260200161102b565b5060008385816110e157fe5b0495945050505050565b63ffffffff421690565b6110fd6111b8565b6000826001600160701b03161161115b576040805162461bcd60e51b815260206004820152601760248201527f4669786564506f696e743a204449565f42595f5a45524f000000000000000000604482015290519081900360640190fd5b6040805160208101909152806001600160701b0384166dffffffffffffffffffffffffffff60701b607087901b168161119057fe5b046001600160e01b0316815250905092915050565b6040518060200160405280600081525090565b6040805160208101909152600081529056fe4f776e61626c653a206e6577206f776e657220697320746865207a65726f2061646472657373556e697377617056324c6962726172793a204944454e544943414c5f4144445245535345536f70657261746f723a207a65726f206164647265737320676976656e20666f72206e6577206f70657261746f72536166654d6174683a206d756c7469706c69636174696f6e206f766572666c6f776f70657261746f723a2063616c6c6572206973206e6f7420746865206f70657261746f724669786564506f696e743a204d554c5449504c49434154494f4e5f4f564552464c4f57a26469706673582212208b0df0442ee2029a0329a0460056aa1f3c94ad6fc78e01ac1fe6727867ab88aa64736f6c634300060c0033556e697377617056324c6962726172793a204944454e544943414c5f414444524553534553536166654d6174683a206d756c7469706c69636174696f6e206f766572666c6f77",
  "linkReferences": {},
  "deployedLinkReferences": {}
}